:1030000039C000006EC000006CC000006AC0000043
:1030100068C0000066C0000064C0000062C000001C
:1030200060C000005EC000005CC0000090C30000F3
:1030300058C0000056C0000054C0000052C000003C
:1030400050C000004EC00000DCC000004AC00000BC
:1030500048C0000046C0000044C00000ACC10000F1
:1030600040C000003EC000003CC000003AC000006C
:1030700038C0000011241FBECFEFD2E0DEBFCDBFAD
:1030800004B603FE19C08091D9019091DA0182340F
:103090009C4D91F484B7877F84BF88E10FB6F89484
:1030A00080936000109260000FBE1092DA011092BF
:1030B000D901E0E0F0E0099511E0A0E0B1E0E6E13F
:1030C000FBE302C005900D92AC38B107D9F711E0CF
:1030D000ACE8B1E001C01D92A93DB107E1F702D013
:1030E00018C58ECF84B7877F84BF88E10FB6F89468
:1030F00080936000109260000FBE90E080E80FB6F1
:10310000F89480936100909361000FBEC1E0C5BF49
:1031100082E085BF0DD38AB180638AB98BB18063A9
:103120008BB9539A5A9A5F9A579AC0936F0083E06B
:10313000809381008BB180638F7D8BB97894C3E0DD
:1031400050C02EB32430F9F4892B8A2B8B2BD9F065
:103150002093E9008091E80082FF15C08091F20081
:10316000882341F08091F1009091C80095FFFCCF39
:103170008093CE008091F200811105C08091E8001B
:103180008B778093E800C093E9008091E80080FD90
:103190001EC026C08091E80085FF1DC080918D0172
:1031A000E82FF0E0E157FE4F90818F5F80938D0113
:1031B0009093F10080918D018F7380938D019FB763
:1031C000F89480918E01815080938E019FBF8091F1
:1031D0008E018111DFCF8091E8008E778093E80027
:1031E0005BD48091000190910101A0910201B09106
:1031F0000301803B24E09207A105B10509F0A1CFAE
:10320000EFCF1F920F920FB60F9211248F939F93BF
:103210008BB190E389278BB99F918F910F900FBE4F
:103220000F901F90189542E061EC82E01AD246E1BF
:1032300061E883E016D242E160E884E012C2CF92F6
:10324000DF92EF92FF92CF938091D101982F9F77D9
:10325000913209F0AAC09BB120E392279BB99091CB
:10326000D201913239F0923209F483C0903209F0E0
:103270009CC013C0813A09F098C08091E800877F14
:103280008093E80067E070E080E091E04AD18091AF
:10329000E8008B778093E80088C0813209F085C010
:1032A0008091E800877F8093E80067E070E080E02D
:1032B00091E099D18091E8008E778093E800E091C9
:1032C0000501E150E23028F4F0E0E95FFE4FC081F3
:1032D00001C0C0E080910401823009F4C86080918F
:1032E0000601873031F0883031F0863029F4C26031
:1032F00003C0C46001C0C6605B9A1092C9001092FE
:10330000C8001092CA00C0900001D0900101E09066
:103310000201F0900301C11421EED206E104F10490
:1033200081F0C701B60196958795779567956058A6
:103330007B47814E9F4FA7019601C9D32150310988
:1033400002C020E130E03093CD002093CC00C09348
:10335000CA00C11481EED806E104F10411F480E042
:1033600001C082E08093C80088E98093C9005B981F
:103370001CC08132D1F48091E800877F8093E800FF
:1033800084D18091000190910101A0910201B0913E
:103390000301803B9440A105B10531F08091D30138
:1033A00080FF02C05F9801C05F9ACF91FF90EF90BD
:1033B000DF90CF9008951F920F920FB60F921124B5
:1033C0008F939F93EF93FF939091CE008EB38430B1
:1033D000C1F480918E018134A0F480918C01E82F9A
:1033E000F0E0E157FE4F90838F5F80938C018091D6
:1033F0008C018F7380938C0180918E018F5F8093FD
:103400008E01FF91EF919F918F910F900FBE0F90C2
:103410001F901895292F30E033272230310539F0DD
:103420002330310549F02130310589F00BC02EE3FE
:1034300030E08BE391E01EC0882371F0813089F089
:103440008230A1F020E030E080E090E013C022E183
:1034500030E089E791E00EC024E030E087E391E0BE
:1034600009C022E130E083E291E004C028E130E0CD
:1034700089E091E0FA0191838083C901089507B63C
:1034800000FCFDCFF999FECF23E0FB01209357000C
:10349000E89507B600FCFDCF81E180935700E895E1
:1034A000089507B600FCFDCFF999FECF25E0FB019A
:1034B00020935700E89507B600FCFDCF81E180938B
:1034C0005700E895089507B600FCFDCFF999FECFA7
:1034D00021E0FB010A0120935700E895112408958B
:1034E00021E2FC01209357008491089529E0FC011A
:1034F0002093570084910895E1E0F0E089E0809303
:1035000057008491089507B600FCFDCFF999FECFCE
:10351000809599E0E1E0F0E0082E90935700E8955F
:1035200008952091D7013091D8012617370748F028
:103530006115710539F42091E8002E772093E80099
:1035400001C0B9019C0180E033C09EB3992309F406
:1035500044C0953009F443C09091E80093FD41C008
:103560009091E80092FD33C09091E80090FF20C058
:103570008091F20090E0F901821B930B05C021912C
:103580002093F100615071099F01280F391F6115C7
:10359000710519F02830310590F381E028303105AC
:1035A00009F080E09091E8009E779093E8009F01F9
:1035B0006115710551F68111C8CF09C08EB38823FA
:1035C00061F0853061F08091E80083FD0AC0809150
:1035D000E80082FFF3CF80E0089582E0089583E061
:1035E000089581E008956115710529F42091E8009E
:1035F0002B772093E8009C0120C08EB3882379F1BB
:10360000853039F18091E80083FD25C08091E80084
:1036100082FFF3CFF90107C08091F10081939F01F0
:103620006150710929F09F018091F2008111F4CF5E
:103630008091E8008B778093E80061157105E9F6C9
:103640008091E80080FD09C08EB3882341F0853069
:10365000B9F783E0089581E0089580E0089582E05D
:1036600008958F708093E900EBEEF0E08081816037
:103670008083EDEEF0E010826093EC004083809157
:10368000EE00881F8827881F08958091D10187FD4B
:1036900005C08091E80080FF0DC010C08091E80057
:1036A00082FD04C08EB38111F9CF08958091E800A6
:1036B0008B7707C08EB38111ECCF08958091E8001D
:1036C0008E778093E80008953CD03ED08091D8005A
:1036D0008F778093D8008091D80080688093D8003D
:1036E0008091D8008F7D8093D80084E089BD86E0EA
:1036F00089BD09B400FEFDCF1EBA1092CF0142E091
:1037000060E080E0AEDF8091E1008E7F8093E10099
:103710008091E20081608093E2008091E200886005
:103720008093E2008091E0008E7F8093E000089516
:10373000E3E6F0E080818E7F808381E08093D0019A
:10374000C3CF1092E20008951092E10008951F92F5
:103750000F920FB60F9211242F933F934F935F93C5
:103760006F937F938F939F93AF93BF93EF93FF9349
:103770008091E10080FF16C08091E20080FF12C0BE
:103780008091E2008E7F8093E2008091E200806170
:103790008093E2008091D80080628093D80019BCA9
:1037A0001EBA79D18091E10084FF2EC08091E200A1
:1037B00084FF2AC084E089BD86E089BD09B400FE8B
:1037C000FDCF8091D8008F7D8093D8008091E1005B
:1037D0008F7E8093E1008091E2008F7E8093E200F3
:1037E0008091E20081608093E2008091CF01882384
:1037F00011F084E007C08091E30087FF02C083E0FE
:1038000001C081E08EBB47D18091E10083FF21C0E0
:103810008091E20083FF1DC08091E100877F80934B
:10382000E10082E08EBB1092CF018091E1008E7F9B
:103830008093E1008091E2008E7F8093E20080918E
:10384000E20080618093E20042E060E080E009DF16
:1038500022D1FF91EF91BF91AF919F918F917F9175
:103860006F915F914F913F912F910F900FBE0F90ED
:103870001F9018951F93CF93DF9300D0CDB7DEB77D
:10388000E1EDF1E08091F100819381E0E93DF807FD
:10389000C9F7D5DC8091E80083FFE9C08091D101B0
:1038A0009091D201953009F470C038F4913079F1DB
:1038B00070F0933009F0DBC02AC0983009F4AAC038
:1038C000993009F4B9C0963009F0D1C083C080386E
:1038D00099F0823809F0CBC08091D5019091D60142
:1038E0008F7099278093E9009091EB0095FB9927C1
:1038F00090F91092E90001C090E08091E800877F84
:103900008093E8009093F1001092F1008EC088231C
:1039100019F0823009F0ABC08F71823009F0A7C076
:103920008091D30181112BC08091D5019091D60156
:103930008F709927009709F49AC08093E90020912D
:10394000EB0020FF1CC02091D201233021F4809194
:10395000EB00806212C09091EB0090619093EB00BD
:1039600021E030E001C0220F8A95EAF72093EA00B7
:103970001092EA008091EB0088608093EB00109237
:10398000E9008091E800877F53C0811170C0809169
:10399000D3019091D4018F779927182F9091E3004C
:1039A0009078982B9093E3008091E800877F809334
:1039B000E8006BDE8091E80080FFFCCF8091E3009F
:1039C00080688093E300112311F083E001C082E05E
:1039D0008EBB4DC08058823008F049C0AE014F5FA9
:1039E0005F4F6091D5018091D3019091D40112DD98
:1039F000009709F43CC02091E800277F2093E8005D
:103A0000BC0189819A818DDD8091E8008B7780935C
:103A1000E8002DC0803859F58091E800877F8093B9
:103A2000E8008091CF018093F1008091E8008E77CB
:103A30008093E8002ADE1BC0811119C09091D30148
:103A40009230A8F48091E800877F8093E8009093FB
:103A5000CF011BDE8091CF01811104C08091E30072
:103A600087FF02C084E001C081E08EBBDCDB809177
:103A7000E80083FF0AC08091E800877F8093E80018
:103A80008091EB0080628093EB000F900F90DF91AC
:103A9000CF911F9108950895CF938EB38823A9F0F5
:103AA0008091E9008F709091EC0090FF02C090E847
:103AB00001C090E0C92FC82B1092E9008091E80066
:103AC00083FDD8DECF70C093E900CF910895A1E2C5
:103AD0001A2EAA1BBB1BFD010DC0AA1FBB1FEE1F88
:103AE000FF1FA217B307E407F50720F0A21BB30BD3
:103AF000E40BF50B661F771F881F991F1A9469F74F
:103B000060957095809590959B01AC01BD01CF01AA
:063B10000895F894FFCFB8
:103B1600000000000000083020180348006F006F06
:103B26000064006C006F0061006400650072003282
:103B360000000012034E00690063006F0048006F2A
:103B4600006F00640000000403090409023E00023D
:103B56000100803209040000010202010005240070
:103B66001001042402020524060001070582030849
:103B760000FF09040100020A000000070504021004
:103B8600000507058302100005120110010200005E
:0C3B960008EB034A2000020102000100BD
:103FA0006ECA7FCA90CA9CCAA1CAA6CAACCA0895E2
:083FB000089508950895089595
:103FE000DFCFDFCFDFCFDFCFDFCFDFCFDFCFDFCF61
:083FF000DFCFDFCFDFCFDFCF11
:083FF8000030000000DFFBDCDB
:0400000300003000C9
:00000001FF
