:1030000039C000006EC000006CC000006AC0000043
:1030100068C0000066C0000064C0000062C000001C
:1030200060C000005EC000005CC000000BC4000077
:1030300058C0000056C0000054C0000052C000003C
:1030400050C000004EC000000BC100004AC000008C
:1030500048C0000046C0000044C00000DBC10000C2
:1030600040C000003EC000003CC000003AC000006C
:1030700038C0000011241FBECFEFD2E0DEBFCDBFAD
:1030800004B603FE19C08091E2019091E3018234FD
:103090009C4D91F484B7877F84BF88E10FB6F89484
:1030A00080936000109260000FBE1092E3011092B6
:1030B000E201E0E0F0E0099511E0A0E0B1E0ECE031
:1030C000FCE302C005900D92AC38B107D9F711E0CE
:1030D000ACE8B1E001C01D92A23EB107E1F702D019
:1030E00093C58ECF84B7877F84BF88E10FB6F894ED
:1030F00080936000109260000FBE90E080E80FB6F1
:10310000F89480936100909361000FBEC1E0C5BF49
:1031100082E085BF88D38AB180638AB98BB180632E
:103120008BB9539A5A9A5F9A579AC0936F0083E06B
:10313000809381008BB180638F7D8BB9ECE8F1E0E7
:103140002FB7F89488E991E09183808393838283F9
:103150009583848388ED91E09783868380E490E073
:1031600091878087138612862FBF789483E0F82E8C
:10317000CCE8D1E065C02EB32430F9F4892B8A2B3A
:103180008B2BD9F02093E9008091E80082FF15C0D5
:103190008091F200882341F08091F1009091C80065
:1031A00095FFFCCF8093CE008091F200811105C085
:1031B0008091E8008B778093E8008FB7F894E090D7
:1031C00096018FBFEE20D9F1F092E9008091E800DE
:1031D00080FD30C034C08091E80085FF0CC0FE0146
:1031E000A281B3812D91B383A28386819781A81791
:1031F000B90799F40EC08091E8008E778093E800BB
:10320000ADD2882361F38091E8008E778093E80047
:1032100016C084819581938382833FB7F894828519
:1032200093850197938782873FBF2093F1000F5FBB
:103230001F4F02C000E010E0E012CDCFE4CFA7D4D2
:103240008091000190910101A0910201B0910301D0
:10325000803B24E09207A105B10509F08CCFEFCFA8
:103260001F920F920FB60F9211248F939F938BB1E1
:1032700090E389278BB99F918F910F900FBE0F908C
:103280001F90189542E061EC82E035D246E161E89A
:1032900083E031D246E160E884E02DC2CF92DF9234
:1032A000EF92FF92CF938091DA01982F9F7791321E
:1032B00009F0AAC09BB120E392279BB99091DB0152
:1032C000913239F0923209F483C0903209F09CC0F7
:1032D00013C0813A09F098C08091E800877F8093FD
:1032E000E80067E070E080E091E065D18091E8005F
:1032F0008B778093E80088C0813209F085C0809187
:10330000E800877F8093E80067E070E080E091E06C
:10331000B4D18091E8008E778093E800E0910501B8
:10332000E150E23028F4F0E0E95FFE4FC08101C0D7
:10333000C0E080910401823009F4C86080910601E8
:10334000873031F0883031F0863029F4C26003C014
:10335000C46001C0C6605B9A1092C9001092C80098
:103360001092CA00C0900001D0900101E0900201CB
:10337000F0900301C11421EED206E104F10481F0C2
:10338000C701B601969587957795679560587B47F5
:10339000814E9F4FA701960115D42150310902C0DB
:1033A00020E130E03093CD002093CC00C093CA00E0
:1033B000C11481EED806E104F10411F480E001C0EB
:1033C00082E08093C80088E98093C9005B981CC0A4
:1033D0008132D1F48091E800877F8093E8009FD10B
:1033E0008091000190910101A0910201B09103012F
:1033F000803B9440A105B10531F08091DC0180FF54
:1034000002C05F9801C05F9ACF91FF90EF90DF906C
:10341000CF9008951F920F920FB60F9211242F9301
:103420003F934F938F939F93AF93BF93EF93FF93EC
:103430004091CE008EB3843049F58FB7F894209137
:103440009601309197018FBF8091940190919501E1
:1034500028173907D9F0ECE8F1E0A081B1814C934D
:1034600080819181019691838083268137818217A3
:10347000930721F484819581918380832FB7F894F9
:10348000828593850196938782872FBFFF91EF9165
:10349000BF91AF919F918F914F913F912F910F903D
:1034A0000FBE0F901F901895292F30E03327223040
:1034B000310539F02330310549F02130310589F0EB
:1034C0000BC02EE330E08BE391E01EC0882371F047
:1034D000813089F08230A1F020E030E080E090E09F
:1034E00013C022E130E089E791E00EC024E030E033
:1034F00087E391E009C028E130E08DE191E004C06C
:1035000022E130E089E091E0FA0191838083C901F2
:10351000089507B600FCFDCFF999FECF23E0FB012B
:1035200020935700E89507B600FCFDCF81E180931A
:103530005700E895089507B600FCFDCFF999FECF36
:1035400025E0FB0120935700E89507B600FCFDCF6E
:1035500081E180935700E895089507B600FCFDCF00
:10356000F999FECF21E0FB010A0120935700E8956D
:103570001124089521E2FC012093570084910895BD
:1035800029E0FC012093570084910895E1E0F0E0E8
:1035900089E0809357008491089507B600FCFDCF21
:1035A000F999FECF809599E0E1E0F0E0082E909344
:1035B0005700E89508952091E0013091E101261728
:1035C000370748F06115710539F42091E8002E772E
:1035D0002093E80001C0B9019C0180E033C09EB394
:1035E000992309F444C0953009F443C09091E80050
:1035F00093FD41C09091E80092FD33C09091E800A6
:1036000090FF20C08091F20090E0F901821B930BA3
:1036100005C021912093F100615071099F01280F8D
:10362000391F6115710519F02830310590F381E0DB
:103630002830310509F080E09091E8009E77909362
:10364000E8009F016115710551F68111C8CF09C0CD
:103650008EB3882361F0853061F08091E80083FDAE
:103660000AC08091E80082FFF3CF80E0089582E0F5
:10367000089583E0089581E008956115710529F4A6
:103680002091E8002B772093E8009C0120C08EB3A6
:10369000882379F1853039F18091E80083FD25C0D8
:1036A0008091E80082FFF3CFF90107C08091F1001B
:1036B00081939F016150710929F09F018091F2006F
:1036C0008111F4CF8091E8008B778093E800611539
:1036D0007105E9F68091E80080FD09C08EB388236A
:1036E00041F08530B9F783E0089581E0089580E0E6
:1036F000089582E008958F708093E900EBEEF0E08A
:10370000808181608083EDEEF0E010826093EC00B8
:1037100040838091EE00881F8827881F089580913C
:10372000DA0187FD05C08091E80080FF0DC010C060
:103730008091E80082FD04C08EB38111F9CF089515
:103740008091E8008B7707C08EB38111ECCF08958C
:103750008091E8008E778093E80008958091E400DE
:103760009091E50045E62091EC0020FD1EC022C0AE
:103770002EB3222391F0253091F02091EB0025FD0E
:1037800010C02091E4003091E5002817390759F363
:103790004150C90141F784E0089582E0089583E033
:1037A000089581E0089580E008952091E80020FFC9
:1037B000DFCFF9CF2091E80022FFDACFF4CF3CD061
:1037C0003ED08091D8008F778093D8008091D80028
:1037D00080688093D8008091D8008F7D8093D80036
:1037E00084E089BD86E089BD09B400FEFDCF1EBA24
:1037F0001092D80142E060E080E07DDF8091E1003E
:103800008E7F8093E1008091E20081608093E200EE
:103810008091E20088608093E2008091E0008E7FDA
:103820008093E0000895E3E6F0E080818E7F80835E
:1038300081E08093D901C3CF1092E20008951092E5
:10384000E10008951F920F920FB60F9211242F934B
:103850003F934F935F936F937F938F939F93AF9318
:10386000BF93EF93FF938091E10080FF16C080919A
:10387000E20080FF12C08091E2008E7F8093E20020
:103880008091E20080618093E2008091D8008062A4
:103890008093D80019BC1EBA79D18091E10084FFD1
:1038A0002EC08091E20084FF2AC084E089BD86E0BA
:1038B00089BD09B400FEFDCF8091D8008F7D809333
:1038C000D8008091E1008F7E8093E1008091E2003A
:1038D0008F7E8093E2008091E20081608093E2001D
:1038E0008091D801882311F084E007C08091E30023
:1038F00087FF02C083E001C081E08EBB47D1809189
:10390000E10083FF21C08091E20083FF1DC0809110
:10391000E100877F8093E10082E08EBB1092D801A6
:103920008091E1008E7F8093E1008091E2008E7FA4
:103930008093E2008091E20080618093E20042E0A7
:1039400060E080E0D8DE22D1FF91EF91BF91AF918E
:103950009F918F917F916F915F914F913F912F91A7
:103960000F900FBE0F901F9018951F93CF93DF936A
:1039700000D0CDB7DEB7EAEDF1E08091F1008193A0
:1039800081E0E23EF807C9F789DC8091E80083FF17
:10399000E9C08091DA019091DB01953009F470C0A3
:1039A00038F4913079F170F0933009F0DBC02AC01F
:1039B000983009F4AAC0993009F4B9C0963009F0DA
:1039C000D1C083C0803899F0823809F0CBC0809193
:1039D000DE019091DF018F7099278093E90090912B
:1039E000EB0095FB992790F91092E90001C090E057
:1039F0008091E800877F8093E8009093F100109217
:103A0000F1008EC0882319F0823009F0ABC08F71AD
:103A1000823009F0A7C08091DC0181112BC0809118
:103A2000DE019091DF018F709927009709F49AC009
:103A30008093E9002091EB0020FF1CC02091DB0166
:103A4000233021F48091EB00806212C09091EB0052
:103A500090619093EB0021E030E001C0220F8A9545
:103A6000EAF72093EA001092EA008091EB00886068
:103A70008093EB001092E9008091E800877F53C0AB
:103A8000811170C08091DC019091DD018F779927C1
:103A9000182F9091E3009078982B9093E3008091F9
:103AA000E800877F8093E8003ADE8091E80080FF9D
:103AB000FCCF8091E30080688093E300112311F034
:103AC00083E001C082E08EBB4DC08058823008F098
:103AD00049C0AE014F5F5F4F6091DE018091DC0114
:103AE0009091DD01E1DC009709F43CC02091E800F1
:103AF000277F2093E800BC0189819A815CDD809159
:103B0000E8008B778093E8002DC0803859F58091CC
:103B1000E800877F8093E8008091D8018093F100CE
:103B20008091E8008E778093E800F9DD1BC0811159
:103B300019C09091DC019230A8F48091E800877F51
:103B40008093E8009093D801EADD8091D80181113B
:103B500004C08091E30087FF02C084E001C081E0DF
:103B60008EBB90DB8091E80083FF0AC08091E80063
:103B7000877F8093E8008091EB0080628093EB0068
:103B80000F900F90DF91CF911F9108950895CF93DB
:103B90008EB38823A9F08091E9008F709091EC009A
:103BA00090FF02C090E801C090E0C92FC82B10928E
:103BB000E9008091E80083FDD8DECF70C093E90072
:103BC000CF910895A1E21A2EAA1BBB1BFD010DC0C7
:103BD000AA1FBB1FEE1FFF1FA217B307E407F507BD
:103BE00020F0A21BB30BE40BF50B661F771F881F99
:103BF000991F1A9469F760957095809590959B012F
:0C3C0000AC01BD01CF010895F894FFCF86
:103C0C0000000000000008302012034C0055004654
:103C1C00004100200043004400430000001803440E
:103C2C0000650061006E002000430061006D0065BE
:103C3C00007200610000000403090409023E000246
:103C4C000100803209040000010202010005240079
:103C5C001001042402020524060001070582030852
:103C6C0000FF09040100020A00000007050402100D
:103C7C000005070583021000051201100102000067
:0C3C8C0008EB034A2000010102000100C7
:103FA000B8CAC9CADACAE6CAEBCAF0CAF6CA0895DC
:083FB000089508950895089595
:103FE000DFCFDFCFDFCFDFCFDFCFDFCFDFCFDFCF61
:083FF000DFCFDFCFDFCFDFCF11
:083FF8000030000000DFFBDCDB
:0400000300003000C9
:00000001FF
