:1030000039C0000082C0000080C000007EC0000007
:103010007CC000007AC0000078C0000076C00000CC
:1030200074C0000072C0000070C0000074C50000D1
:103030006CC000006AC0000068C0000066C00000EC
:1030400064C0000062C0000060C000005EC00000FC
:103050005CC000005AC0000058C00000CEC3000091
:1030600054C0000052C0000050C000004EC000001C
:103070004CC0000011241FBECFEFD2E0DEBFCDBF99
:103080003091E8011092E80124B714BE88E10FB630
:10309000F89480936000109260000FBEE0E0F0E0D2
:1030A000859194910196E1F021FF12C03E34C1F068
:1030B0008EE48093E8018FEF9EE924E281509040F6
:1030C0002040E1F700C000001092E80152D008C093
:1030D00020FF02C04ED004C023FF02C03E34D1F70F
:1030E00011E0A0E0B1E0EAE0FFE302C005900D923C
:1030F000A439B107D9F711E0A4E9B1E001C01D92EC
:10310000A83EB107E1F740D0FEC67ACF84E08093B5
:10311000E9000DC08091E8008B778093E80003C040
:103120008EB3882359F08091E80082FFF9CF809117
:10313000E80085FFEFCF8091F100089580E00895C9
:1031400093E09093E9009091E80095FF03C080938D
:10315000F10008959091E8009E779093E80003C0F5
:103160009EB3992329F09091E80090FFF9CFEFCF1B
:103170000895F89415BC81E085BF15BE8BB18063BE
:103180008BB9E0E0F0E009942F923F924F925F926A
:103190006F927F928F929F92AF92BF92CF92DF9267
:1031A000EF92FF920F931F93CF93DF93CDB7DEB7CC
:1031B00027970FB6F894DEBF0FBECDBF90E080E832
:1031C0000FB6F89480936100909361000FBE81E088
:1031D00085BF82E085BF90D484E085BD8AB1886BCD
:1031E0008AB98BB1846B8BB9789413E0992493944A
:1031F00069E0B62E03C224E02093E9008091E80044
:1032000082FF8CC183DF982F80919401811113C0BC
:103210008091C80085FFFCCF9093CE008091F20092
:10322000811105C08091E8008B778093E8005C985D
:103230001093970177C1953419F41092000107C0DB
:10324000892F8857823010F0943521F45FDF8DE0AC
:1032500077DF68C19035D9F39C3409F4F8CF9437FF
:1032600021F484E46DDF80E0F3CF913611F489E539
:10327000EFCF9134D1F44ADF082F48DF90E0880F78
:10328000991F000F0A83198229813A81822B932B7F
:10329000AA2797FDA095BA2F8093D9019093DA01C0
:1032A000A093DB01B093DC01D2CF903711F483E51A
:1032B000CFCF933571F44CE8E42E41E0F42EF701C2
:1032C00081917F013DDFF3E9EF16F1E0FF06B9F7E9
:1032D00029C1963521F481E333DF80E3B9CF9337F9
:1032E00031F482E82DDF84E92BDF8EE1B1CF953612
:1032F000B1F4E0E0F0E010935700E89507B600FC69
:10330000FDCF25E020935700E89507B600FCFDCFE0
:10331000E058FF4FE11530E3F30769F798CF923794
:1033200019F4E1E0F0E004C0963431F4E0E0F0E0BC
:10333000B092570084918CCF9E3419F4E3E0F0E012
:10334000F7CF913519F4E2E0F0E0F2CF923631F4A4
:1033500089E5F6DE80E0F4DE80E87ACF923419F079
:10336000973609F0D7C09D83D1DEE82ECFDEF82E48
:10337000CDDE082F85549D81823010F08FE368CF19
:103380007E2C612C93012F293F832E83973609F0E1
:1033900048C031E130935700E895A12C3CC0C09063
:1033A000D901D090DA01E090DB01F090DC01063425
:1033B000B9F4EA2DF0E0EC29FD298491C1DEAA20C0
:1033C00069F082E0C80ED11CE11CF11CC092D90149
:1033D000D092DA01E092DB01F092DC01A92415C061
:1033E000D701C601B695A7959795879576D5A8DE9E
:1033F00092E0C90ED11CE11CF11CC092D901D092FF
:10340000DA01E092DB01F092DC012E813F81215054
:1034100031093F832E832E813F81232B09F0BFCFBB
:1034200081C02090D9013090DA014090DB015090AA
:10343000DC01063409F05BC0F10110935700E895F8
:1034400007B600FCFDCF53C0063441F5AA2011F1A8
:10345000C090D901D090DA01E090DB01F090DC015E
:1034600055DE8C831B822B813C812829F6010901C2
:1034700090925700E8951124F2E0CF0ED11CE11C88
:10348000F11CC092D901D092DA01E092DB01F092F6
:10349000DC0102C03BDE882EA92422C037DE682F63
:1034A0008091D9019091DA01A091DB01B091DC010A
:1034B000B695A7959795879518D58091D901909144
:1034C000DA01A091DB01B091DC010296A11DB11DD2
:1034D0008093D9019093DA01A093DB01B093DC01D2
:1034E0002E813F81215031093F832E8302C0812CE0
:1034F000A12C2E813F81232B09F0A6CF063409F0A1
:10350000A6CE25E0F10120935700E89507B600FC10
:10351000FDCF9DCE9B3109F031CF04C08091940145
:10352000811154C08FB7F894009195018FBF80919D
:10353000940181111DC0002309F448C05D981093C7
:10354000960116C0F0909801EF2DF0E0E756FE4F7F
:103550008081F6DD8F2D8F5F8F73809398019FB7E9
:10356000F894809195018150809395019FBF0150FF
:103570000111E8CF1093E9009091E8008091E800F4
:103580008E778093E80095FD11C08091E80080FD62
:1035900004C08EB38111F9CF0DC08091E8008E7701
:1035A0008093E80003C08EB3882321F08091E80067
:1035B00080FFF9CF80919401882341F034E030936B
:1035C000E9008091E8008B778093E800A89B15C004
:1035D000A89A80919601882331F0815080939601BA
:1035E000811101C05D9A80919701882331F081504B
:1035F00080939701811101C05C9A32D480910001BF
:103600008111F9CD8091E00081608093E000B1DD0F
:1036100080E090E027960FB6F894DEBF0FBECDBFD6
:10362000DF91CF911F910F91FF90EF90DF90CF909E
:10363000BF90AF909F908F907F906F905F904F90D2
:103640003F902F90089542E061EC82E0EED142E19C
:1036500061E883E0EAD142E160E884E0E6C1CF932B
:103660008091E001982F9F77913209F0C4C090912A
:10367000E101913239F0923209F4AAC0903209F096
:10368000BAC013C0813A09F0B6C08091E800877FC4
:103690008093E80067E070E081E091E064D1809180
:1036A000E8008B778093E800A6C0813209F0A3C0C0
:1036B0008091E800877F8093E80027E081E091E037
:1036C0003EB3332339F1353029F13091E80033FD31
:1036D00021C03091E80032FFF3CFFC0106C0809199
:1036E000F1008193CF01215029F0CF013091F200F8
:1036F0003111F5CF3091E8003B773093E80021118C
:10370000DFCF8091E80080FD05C08EB3882311F0E3
:103710008530B9F78091E8008E778093E80020919A
:1037200001013091020140910301509104012115E2
:1037300081EE38074105510521F481E08093940121
:1037400002C010929401109295011092980110926B
:10375000DD01E0910601E150E23028F4F0E0E85F9D
:10376000FE4FC08101C0C0E080910501823009F4A4
:10377000C86080910701873031F0883031F08630A1
:1037800029F4C26003C0C46001C0C6605B9A109295
:10379000C9001092C8001092CA00CA01B9019695DA
:1037A00087957795679560587B47814E9F4F73D378
:1037B000215031093093CD002093CC00C093CA0032
:1037C00082E08093C80088E98093C9005B9813C0A9
:1037D000813289F48091E800877F8093E80039D1B5
:1037E00080919401811106C08091E20180FF02C0A6
:1037F0005F9801C05F9ACF9108951F920F920FB604
:103800000F9211248F939F93EF93FF939091CE008B
:1038100080919401811117C08EB38430A1F48091FE
:103820009501813480F48091DD01E82FF0E0E756C6
:10383000FE4F90838F5F8F738093DD0180919501A0
:103840008F5F80939501FF91EF919F918F910F90E2
:103850000FBE0F901F901895292F30E0332722308C
:10386000310539F02330310549F02130310589F037
:103870000BC02EE330E08CE391E01EC0882371F092
:10388000813089F08230A1F020E030E080E090E0EB
:1038900013C022E130E08AE791E00EC024E030E07E
:1038A00088E391E009C02AE030E08CE291E004C0B6
:1038B00020E230E08AE091E0FA0191838083C9013F
:1038C000089507B600FCFDCFF999FECF23E0FB0178
:1038D00020935700E89507B600FCFDCF81E1809367
:1038E0005700E895089507B600FCFDCFF999FECF83
:1038F00025E0FB0120935700E89507B600FCFDCFBB
:1039000081E180935700E895089507B600FCFDCF4C
:10391000F999FECF21E0FB010A0120935700E895B9
:103920001124089521E2FC01209357008491089509
:1039300029E0FC012093570084910895E1E0F0E034
:1039400089E0809357008491089507B600FCFDCF6D
:10395000F999FECF809599E0E1E0F0E0082E909390
:103960005700E89508952091E6013091E701261768
:10397000370748F06115710539F42091E8002E777A
:103980002093E80001C0B9019C0180E033C09EB3E0
:10399000992309F444C0953009F443C09091E8009C
:1039A00093FD41C09091E80092FD33C09091E800F2
:1039B00090FF20C08091F20090E0F901821B930BF0
:1039C00005C021912093F100615071099F01280FDA
:1039D000391F6115710519F02830310590F381E028
:1039E0002830310509F080E09091E8009E779093AF
:1039F000E8009F016115710551F68111C8CF09C01A
:103A00008EB3882361F0853061F08091E80083FDFA
:103A10000AC08091E80082FFF3CF80E0089582E041
:103A2000089583E0089581E008958F708093E90000
:103A3000EBEEF0E0808181608083EDEEF0E01082BB
:103A40006093EC0040838091EE00881F8827881FD8
:103A500008958091E00187FD05C08091E80080FF16
:103A60000DC010C08091E80082FD04C08EB38111AA
:103A7000F9CF08958091E8008B7707C08EB381114C
:103A8000ECCF08958091E8008E778093E800089548
:103A90003CD03ED08091D8008F778093D800809121
:103AA000D80080688093D8008091D8008F7D809363
:103AB000D80084E089BD86E089BD09B400FEFDCF51
:103AC0001EBA1092DE0142E060E080E0AEDF80913D
:103AD000E1008E7F8093E1008091E200816080931D
:103AE000E2008091E20088608093E2008091E00033
:103AF0008E7F8093E0000895E3E6F0E080818E7F82
:103B0000808381E08093DF01C3CF1092E2000895AB
:103B10001092E10008951F920F920FB60F92112498
:103B20002F933F934F935F936F937F938F939F93C5
:103B3000AF93BF93EF93FF938091E10080FF16C096
:103B40008091E20080FF12C08091E2008E7F80931E
:103B5000E2008091E20080618093E2008091D800D1
:103B600080628093D80019BC1EBA79D18091E1009F
:103B700084FF2EC08091E20084FF2AC084E089BDCA
:103B800086E089BD09B400FEFDCF8091D8008F7D0D
:103B90008093D8008091E1008F7E8093E100809136
:103BA000E2008F7E8093E2008091E200816080934A
:103BB000E2008091DE01882311F084E007C080914B
:103BC000E30087FF02C083E001C081E08EBB47D1E4
:103BD0008091E10083FF21C08091E20083FF1DC03E
:103BE0008091E100877F8093E10082E08EBB10929C
:103BF000DE018091E1008E7F8093E1008091E20000
:103C00008E7F8093E2008091E20080618093E200E9
:103C100042E060E080E009DF22D1FF91EF91BF91A7
:103C2000AF919F918F917F916F915F914F913F9154
:103C30002F910F900FBE0F901F9018951F93CF9349
:103C4000DF9300D0CDB7DEB7E0EEF1E08091F10078
:103C5000819381E0E83EF807C9F701DD8091E80033
:103C600083FFE9C08091E0019091E101953009F472
:103C700070C038F4913079F170F0933009F0DBC006
:103C80002AC0983009F4AAC0993009F4B9C0963016
:103C900009F0D1C083C0803899F0823809F0CBC0D8
:103CA0008091E4019091E5018F7099278093E9005C
:103CB0009091EB0095FB992790F91092E90001C0D3
:103CC00090E08091E800877F8093E8009093F10076
:103CD0001092F1008EC0882319F0823009F0ABC039
:103CE0008F71823009F0A7C08091E20181112BC051
:103CF0008091E4019091E5018F709927009709F474
:103D00009AC08093E9002091EB0020FF1CC0209115
:103D1000E101233021F48091EB00806212C0909188
:103D2000EB0090619093EB0021E030E001C0220FA6
:103D30008A95EAF72093EA001092EA008091EB005E
:103D400088608093EB001092E9008091E800877F03
:103D500053C0811170C08091E2019091E3018F778F
:103D60009927182F9091E3009078982B9093E30077
:103D70008091E800877F8093E8006BDE8091E80007
:103D800080FFFCCF8091E30080688093E3001123E3
:103D900011F083E001C082E08EBB4DC080588230BC
:103DA00008F049C0AE014F5F5F4F6091E401809120
:103DB000E2019091E30150DD009709F43CC02091AD
:103DC000E800277F2093E800BC0189819A81CBDD40
:103DD0008091E8008B778093E8002DC0803859F5FA
:103DE0008091E800877F8093E8008091DE018093D6
:103DF000F1008091E8008E778093E8002ADE1BC0F6
:103E0000811119C09091E2019230A8F48091E800EC
:103E1000877F8093E8009093DE011BDE8091DE01B6
:103E2000811104C08091E30087FF02C084E001C0DB
:103E300081E08EBB08DC8091E80083FF0AC080919E
:103E4000E800877F8093E8008091EB008062809398
:103E5000EB000F900F90DF91CF911F91089508957F
:103E6000CF938EB38823A9F08091E9008F70909151
:103E7000EC0090FF02C090E801C090E0C92FC82B71
:103E80001092E9008091E80083FDD8DECF70C093E6
:103E9000E900CF910895A1E21A2EAA1BBB1BFD01D8
:103EA0000DC0AA1FBB1FEE1FFF1FA217B307E40719
:103EB000F50720F0A21BB30BE40BF50B661F771F71
:103EC000881F991F1A9469F7609570958095909551
:103ED0009B01AC01BD01CF010895F999FECF92BDC0
:103EE00081BDF89A992780B50895262FF999FECFBC
:103EF0001FBA92BD81BD20BD0FB6F894FA9AF99A07
:0A3F00000FBE01960895F894FFCF5C
:103F0A0001000000000000083020200348006F0074
:103F1A006F0064006C006F0061006400650072004D
:103F2A003200200055006E006F0000000A034E00A8
:103F3A00690063006F0000000403090409023E00DF
:103F4A000201008032090400000102020100052476
:103F5A000010010424020205240600010705820359
:103F6A000800FF09040100020A0000000705040214
:103F7A001000050705830210000512011001020056
:103F8A00000841234300000201020001484C322D7F
:043F9A004344430059
:103FA00090CCA1CCB2CCBECCC3CCC8CCCECC0895E6
:083FB000089508950895089595
:103FE000DFCFDFCFDFCFDFCFDFCFDFCFDFCFDFCF61
:083FF000DFCFDFCFDFCFDFCF11
:083FF8000030000000DFFBDCDB
:0400000300003000C9
:00000001FF
