:1030000039C0000052C0000050C000004EC0000097
:103010004CC000004AC0000048C0000046C000008C
:1030200044C0000042C0000040C0000064C5000071
:103030003CC000003AC0000038C0000036C00000AC
:1030400034C0000032C0000030C000002EC00000BC
:103050002CC000002AC0000028C0000083C300006C
:1030600024C0000022C0000020C000001EC00000DC
:103070001CC0000011241FBECFEFD2E0DEBFCDBFC9
:1030800011E0A0E0B1E0EAEEFEE302C005900D928F
:10309000A439B107D9F711E0A4E9B1E001C01D924C
:1030A000A63EB107E1F730D01EC7AACF84E08093D7
:1030B000E9000DC08091E8008B778093E80003C0A1
:1030C0008EB3882359F08091E80082FFF9CF809178
:1030D000E80085FFEFCF8091F100089580E008952A
:1030E0009091DA01913478F42091DB01E22FF0E045
:1030F000E656FE4F8083822F8F5F8F738093DB01B4
:103100009F5F9093DA010895CF93DF93CDB7DEB739
:1031100027970FB6F894DEBF0FBECDBF84B7877F69
:1031200084BF88E10FB6F89480936000109260002D
:103130000FBE90E080E80FB6F89480936100909302
:1031400061000FBE81E085BF82E085BFC5D48AB132
:10315000886B8AB98BB1846B8BB97894BB24B39498
:10316000E3E08E2E19E037C224E02093E90080913D
:10317000E80082FF06C29ADF982F809194018111A6
:1031800010C08091C80085FFFCCF9093CE00809145
:10319000F2008111F6C18091E8008B778093E800FE
:1031A000F0C1953419F4109200011BC09134E1F480
:1031B0007DDF082F7BDF90E0880F991F000F0A83C7
:1031C000198229813A81822B932BAA2797FDA095FA
:1031D000BA2F8093950190939601A0939701B09395
:1031E00098018DE07DDFCDC1903711F483E5FACFF2
:1031F000933571F46CE8E62E61E0F62EF7018191CB
:103200007F016EDFF3E9EF16F1E0FF06B9F7B9C110
:10321000963521F481E364DF80E3E4CF933731F422
:1032200089E85EDF84E95CDF8EE1DCCF9536B1F4BE
:10323000E0E0F0E080925700E89507B600FCFDCF93
:1032400025E020935700E89507B600FCFDCFE05835
:10325000FF4FE11530E3F30769F7C3CF9C3649F41C
:1032600025DF8095E1E0F0E0082E10935700E89507
:10327000B8CF923719F4E1E0F0E00EC0963419F4BB
:10328000E0E0F0E009C09E3419F4E3E0F0E004C0AF
:10329000913531F4E2E0F0E0109357008491A2CF31
:1032A000923631F489E51CDF80E01ADF80E89ACF9E
:1032B000923419F0973609F0D8C09D83F7DE782E46
:1032C000612CF4DE9301282B3F832E83EFDE082F41
:1032D00085549D81823010F08FE384CF973609F0BA
:1032E0004BC031E130935700E895A12C3FC0C0900E
:1032F0009501D0909601E0909701F09098010634E6
:10330000D1F4EA2DF0E0EC29FD298491E9DEAA2030
:1033100069F082E0C80ED11CE11CF11CC09295013D
:10332000D0929601E0929701F092980181E0A1106D
:1033300080E0A82E15C0D701C601B695A795979530
:103340008795BBD5CDDE92E0C90ED11CE11CF11CE6
:10335000C0929501D0929601E0929701F092980167
:103360002E813F81215031093F832E832E813F8161
:10337000232B09F0BCCF05C1C0909501D0909601D8
:10338000E0909701F0909801063409F05BC0F601D7
:1033900080925700E89507B600FCFDCF53C0063475
:1033A00041F5AA2011F120909501309096014090AE
:1033B0009701509098017ADE8C831B822B813C818F
:1033C0002929F1010901B0925700E8951124D20191
:1033D000C1010296A11DB11D8093950190939601A4
:1033E000A0939701B093980102C060DE982EAB24A1
:1033F00022C05CDE682F8091950190919601A0918A
:103400009701B0919801B695A795979587955DD549
:103410008091950190919601A0919701B0919801AA
:103420000296A11DB11D8093950190939601A093E2
:103430009701B09398012E813F81215031093F833C
:103440002E8302C0912CA12C2E813F81232B09F0C9
:10345000A6CF063409F0C5CE25E0F601209357002B
:10346000E89507B600FCFDCFBCCE933469F4E0903C
:103470009501F09096011ADE90E0F7010C01B092F0
:103480005700E8951124ADCE933609F5C09095010B
:10349000D0909601E0909701F090980107DEB70177
:1034A000A601416090E0FA010C01B0925700E89546
:1034B0001124F2E0CF0ED11CE11CF11CC092950149
:1034C000D0929601E0929701F09298018ACE9D36B3
:1034D00061F4E0919501F091960125E02093570069
:1034E000E89507B600FCFDCF7CCE923551F4E09113
:1034F0009501F0919601E590F4908F2DF1DD8E2DE0
:1035000071CE9434D9F4D2DD682F809195019091D9
:103510009601A0919701B0919801B695A7959795BE
:103520008795D3D48091950190919601A0919701B0
:10353000B09198010296A11DB11D4BCE9436F1F4C5
:10354000C0909501D0909601E0909701F09098017D
:10355000D701C601B695A79597958795AED4C0DDDE
:1035600032E0C30ED11CE11CF11CC0929501D09237
:103570009601E0929701F092980103C09B3109F007
:10358000ABCE8092E9008091E80080FD1AC022C095
:103590008091E80085FF19C080919901E82FF0E043
:1035A000E656FE4F90818F5F9093F1008F7380936A
:1035B00099019FB7F8948091DA0181508093DA01E4
:1035C0009FBF8091DA018111E3CF8091E8008E776F
:1035D0008093E80035D4809100018111C5CD8091A0
:1035E000E00081608093E0002CE088E190E00FB67D
:1035F000F894A895809360000FBE20936000FFCFE1
:1036000042E061EC82E001D246E161E883E0FDD175
:1036100042E160E884E0F9C1CF938091DE01982F08
:103620009F77913209F09CC09091DF01913239F07F
:10363000923209F482C0903209F092C013C0813AEC
:1036400009F08EC08091E800877F8093E80067E0F2
:1036500070E081E091E039D18091E8008B77809330
:10366000E8007EC0813209F07BC08091E800877F4E
:103670008093E80067E070E081E091E088D180917C
:10368000E8008E778093E8002091010130910201DB
:103690004091030150910401203B84E0380741052B
:1036A000510521F481E08093940102C010929401AD
:1036B0001092DA01109299011092DB01E09106015B
:1036C000E150E23028F4F0E0E85FFE4FC08101C035
:1036D000C0E080910501823009F4C8608091070143
:1036E000873031F0883031F0863029F4C26003C071
:1036F000C46001C0C6605B9A1092C9001092C800F5
:103700001092CA00CA01B901969587957795679579
:1037100060587B47814E9F4FAED321503109309383
:10372000CD002093CC00C093CA0082E08093C800F3
:1037300088E98093C9005B9813C0813289F4809135
:10374000E800877F8093E80074D180919401811113
:1037500006C08091E00180FF02C05F9801C05F9ABF
:10376000CF9108951F920F920FB60F9211242F93AD
:103770003F934F935F936F937F938F939F93AF93F9
:10378000BF93EF93FF938091CE009091940191119C
:1037900004C09EB3943009F4A3DCFF91EF91BF9174
:1037A000AF919F918F917F916F915F914F913F91D9
:1037B0002F910F900FBE0F901F901895292F30E07A
:1037C00033272230310539F02330310549F02130DB
:1037D000310589F00BC02EE330E08CE391E01EC090
:1037E000882371F0813089F08230A1F020E030E050
:1037F00080E090E013C022E130E08AE791E00EC063
:1038000024E030E088E391E009C022E130E084E286
:1038100091E004C028E130E08AE091E0FA01918370
:103820008083C901089507B600FCFDCFF999FECF4A
:1038300023E0FB0120935700E89507B600FCFDCF7D
:1038400081E180935700E895089507B600FCFDCF0D
:10385000F999FECF25E0FB0120935700E89507B6C4
:1038600000FCFDCF81E180935700E895089507B6ED
:1038700000FCFDCFF999FECF21E0FB010A01209366
:103880005700E8951124089521E2FC012093570088
:103890008491089529E0FC012093570084910895B4
:1038A000E1E0F0E089E0809357008491089507B645
:1038B00000FCFDCFF999FECF809599E0E1E0F0E0C2
:1038C000082E90935700E89508952091E4013091D7
:1038D000E5012617370748F06115710539F4209185
:1038E000E8002E772093E80001C0B9019C0180E038
:1038F00033C09EB3992309F444C0953009F443C002
:103900009091E80093FD41C09091E80092FD33C092
:103910009091E80090FF20C08091F20090E0F901C2
:10392000821B930B05C021912093F1006150710916
:103930009F01280F391F6115710519F028303105D5
:1039400090F381E02830310509F080E09091E800A3
:103950009E779093E8009F016115710551F68111E2
:10396000C8CF09C08EB3882361F0853061F08091A3
:10397000E80083FD0AC08091E80082FFF3CF80E079
:10398000089582E0089583E0089581E00895611527
:10399000710529F42091E8002B772093E8009C0121
:1039A00020C08EB3882379F1853039F18091E80009
:1039B00083FD25C08091E80082FFF3CFF90107C0A5
:1039C0008091F10081939F016150710929F09F015D
:1039D0008091F2008111F4CF8091E8008B77809381
:1039E000E80061157105E9F68091E80080FD09C0E5
:1039F0008EB3882341F08530B9F783E0089581E0E4
:103A0000089580E0089582E008958F708093E90022
:103A1000EBEEF0E0808181608083EDEEF0E01082DB
:103A20006093EC0040838091EE00881F8827881FF8
:103A300008958091DE0187FD05C08091E80080FF38
:103A40000DC010C08091E80082FD04C08EB38111CA
:103A5000F9CF08958091E8008B7707C08EB381116C
:103A6000ECCF08958091E8008E778093E800089568
:103A70003CD03ED08091D8008F778093D800809141
:103A8000D80080688093D8008091D8008F7D809383
:103A9000D80084E089BD86E089BD09B400FEFDCF71
:103AA0001EBA1092DC0142E060E080E0AEDF80915F
:103AB000E1008E7F8093E1008091E200816080933D
:103AC000E2008091E20088608093E2008091E00053
:103AD0008E7F8093E0000895E3E6F0E080818E7FA2
:103AE000808381E08093DD01C3CF1092E2000895CE
:103AF0001092E10008951F920F920FB60F921124B9
:103B00002F933F934F935F936F937F938F939F93E5
:103B1000AF93BF93EF93FF938091E10080FF16C0B6
:103B20008091E20080FF12C08091E2008E7F80933E
:103B3000E2008091E20080618093E2008091D800F1
:103B400080628093D80019BC1EBA79D18091E100BF
:103B500084FF2EC08091E20084FF2AC084E089BDEA
:103B600086E089BD09B400FEFDCF8091D8008F7D2D
:103B70008093D8008091E1008F7E8093E100809156
:103B8000E2008F7E8093E2008091E200816080936A
:103B9000E2008091DC01882311F084E007C080916D
:103BA000E30087FF02C083E001C081E08EBB47D104
:103BB0008091E10083FF21C08091E20083FF1DC05E
:103BC0008091E100877F8093E10082E08EBB1092BC
:103BD000DC018091E1008E7F8093E1008091E20022
:103BE0008E7F8093E2008091E20080618093E2000A
:103BF00042E060E080E009DF22D1FF91EF91BF91C8
:103C0000AF919F918F917F916F915F914F913F9174
:103C10002F910F900FBE0F901F9018951F93CF9369
:103C2000DF9300D0CDB7DEB7EEEDF1E08091F1008B
:103C3000819381E0E63EF807C9F7EEDC8091E80069
:103C400083FFE9C08091DE019091DF01953009F496
:103C500070C038F4913079F170F0933009F0DBC026
:103C60002AC0983009F4AAC0993009F4B9C0963036
:103C700009F0D1C083C0803899F0823809F0CBC0F8
:103C80008091E2019091E3018F7099278093E90080
:103C90009091EB0095FB992790F91092E90001C0F3
:103CA00090E08091E800877F8093E8009093F10096
:103CB0001092F1008EC0882319F0823009F0ABC059
:103CC0008F71823009F0A7C08091E00181112BC073
:103CD0008091E2019091E3018F709927009709F498
:103CE0009AC08093E9002091EB0020FF1CC0209136
:103CF000DF01233021F48091EB00806212C09091AB
:103D0000EB0090619093EB0021E030E001C0220FC6
:103D10008A95EAF72093EA001092EA008091EB007E
:103D200088608093EB001092E9008091E800877F23
:103D300053C0811170C08091E0019091E1018F77B3
:103D40009927182F9091E3009078982B9093E30097
:103D50008091E800877F8093E8006BDE8091E80027
:103D600080FFFCCF8091E30080688093E300112303
:103D700011F083E001C082E08EBB4DC080588230DC
:103D800008F049C0AE014F5F5F4F6091E201809142
:103D9000E0019091E10112DD009709F43CC020910F
:103DA000E800277F2093E800BC0189819A818DDD9E
:103DB0008091E8008B778093E8002DC0803859F51A
:103DC0008091E800877F8093E8008091DC018093F8
:103DD000F1008091E8008E778093E8002ADE1BC016
:103DE000811119C09091E0019230A8F48091E8000F
:103DF000877F8093E8009093DC011BDE8091DC01DB
:103E0000811104C08091E30087FF02C084E001C0FB
:103E100081E08EBBF5DB8091E80083FF0AC08091D2
:103E2000E800877F8093E8008091EB0080628093B8
:103E3000EB000F900F90DF91CF911F91089508959F
:103E4000CF938EB38823A9F08091E9008F70909171
:103E5000EC0090FF02C090E801C090E0C92FC82B91
:103E60001092E9008091E80083FDD8DECF70C09306
:103E7000E900CF910895A1E21A2EAA1BBB1BFD01F8
:103E80000DC0AA1FBB1FEE1FFF1FA217B307E40739
:103E9000F50720F0A21BB30BE40BF50B661F771F91
:103EA000881F991F1A9469F7609570958095909571
:103EB0009B01AC01BD01CF010895F999FECF92BDE0
:103EC00081BDF89A992780B50895262FF999FECFDC
:103ED0001FBA92BD81BD20BD0FB6F894FA9AF99A27
:0A3EE0000FBE01960895F894FFCF7D
:103EEA0001000000000000083020180348006F009D
:103EFA006F0064006C006F0061006400650072006E
:103F0A003200000012034E00690063006F0048008F
:103F1A006F006F00640000000403090409023E00F8
:103F2A000201008032090400000102020100052496
:103F3A000010010424020205240600010705820379
:103F4A000800FF09040100020A0000000705040234
:103F5A001000050705830210000512011001020076
:103F6A000008EB034A200002010200014C554641B9
:043F7A004344430079
:103FA00042CC53CC64CC70CC75CC7ACC80CC089508
:083FB000089508950895089595
:103FE000DFCFDFCFDFCFDFCFDFCFDFCFDFCFDFCF61
:083FF000DFCFDFCFDFCFDFCF11
:083FF8000030000000DFFBDCDB
:0400000300003000C9
:00000001FF
