:103000007EC00000D9C00000D7C00000D5C00000BD
:10301000D3C00000D1C00000CFC00000CDC0000070
:10302000CBC00000C9C00000C7C000003CC3000006
:10303000C3C00000C1C00000BFC00000BDC0000090
:10304000BBC00000B9C00000B7C00000B5C00000A0
:10305000B3C00000B1C00000AFC0000019C4000040
:1030600004C40000A9C00000A7C00000A5C0000063
:10307000A3C0000009023E000201008032090400E2
:1030800000010202010005240010010424020205CF
:1030900024060001070582030800FF09040100025D
:1030A0000A00000007050402200001070583024012
:1030B0000001120110010200000841234300050233
:1030C00001020001200348006F006F0064004C0003
:1030D0006F0061006400650072003200200055003E
:1030E0006E006F00000012034E00690063006F0065
:1030F00048006F006F0064000000040309041124FD
:103100001FBECFEFD2E0DEBFCDBF2091FF021092F5
:10311000FF02909180021092800284B714BE0FB615
:10312000F894A89530916000386130936000109257
:1031300060000FBE5D9A5C9AE0E0F0E0459154912A
:103140004F3F5F4F21F181FF18C0273701F19737BB
:10315000F1F087E78093FF02809380028FEF9EE972
:1031600024E2815090402040E1F700C0000010921E
:10317000FF0210928002F2D00AC080FF02C0EED09F
:1031800006C083FF04C0273711F09737C1F712E05C
:10319000A2E8B2E0EAE7FFE302C005900D92A2398F
:1031A000B107D9F722E0A2E9B2E001C01D92A33A2B
:1031B000B207E1F776D3DFC623CF80919A0287FF6B
:1031C0000FC08091E80082FD04C08BB58111F9CF5A
:1031D00010C08091E8008B770AC08BB5882349F036
:1031E0008091E80080FFF9CF8091E8008E7780938E
:1031F000E80008958F708093E900EBEEF0E08081A5
:1032000081608083EDEEF0E010826093EC004083FB
:103210008091EE00881F8827881F0895CF935B9ABE
:103220001092C9001092C8001092CA001EBA1092E3
:103230009902109298021ABC209183023091840264
:1032400040918502509186022115310541055105B5
:1032500019F4109297024FC0211581EE38074105ED
:10326000510521F481E08093970245C082E080936C
:10327000970280918802813021F0823021F4C0E2EF
:1032800003C0C0E301C0C0E080918702823009F42E
:10329000C86080918902873031F0883031F0863003
:1032A00029F4C26003C0C46001C0C660DA01C9016C
:1032B000B695A79597958795BC01CD0160587B473A
:1032C000814E9F4F36D62150310920FD04C0211573
:1032D00080E1380720F03695279580E001C082E034
:1032E0003093CD002093CC00C093CA008093C800D7
:1032F00088E98093C9005B98CF91089593E09093FB
:10330000E9009BB5992391F09091E80090FFF9CFE7
:103310008093F10081E0860D8F3310F4682E0895BC
:10332000612C8091E8008E778093E800089584E016
:103330008093E9008091E80085FD0DC08091E80050
:103340008B778093E8008BB5882339F08091E80073
:1033500082FFF9CFEFCF8091F1000895E0E0F0E037
:1033600009947F928F929F92AF92BF92CF92DF92F9
:10337000EF92FF920F931F93CF93DF93612CD7DFD0
:10338000D82F853419F41092820207C088E88D0F77
:10339000823010F0D43521F4CADF8DE0AFDF5CC19C
:1033A000D035D9F3DC34C9F3D43721F484E4A6DF73
:1033B00080E0F4CFD13611F489E5F0CFD134D1F4E7
:1033C000B6DFC82FB4DF2C2F30E0322F2227330F87
:1033D00090E0880F991F822B932B092E000CAA0BCB
:1033E000BB0B8093930290939402A0939502B093A9
:1033F0009602D3CFD03711F483E5D0CFD33551F433
:10340000CAE8D2E001E912E0899178DF0C171D07C4
:10341000D9F722C1D63521F481E370DF80E3BECF36
:10342000D33731F482E86ADF84E968DF8EE1B6CF12
:10343000D536B9F4E0E0F0E083E095E08093570002
:10344000E89507B600FCFDCF90935700E89507B6C6
:1034500000FCFDCFE058FF4FE11520E3F20771F7C4
:103460009CCFDC3651F463DF809599E0E1E0F0E039
:10347000082E90935700E89590CFD23719F4E1E0E9
:10348000F0E00EC0D63419F4E0E0F0E009C0DE341C
:1034900019F4E3E0F0E004C0D13539F4E2E0F0E003
:1034A00089E080935700849179CFD23631F489E551
:1034B00025DF80E023DF80E871CFD23419F0D736E2
:1034C00009F0C7C034DF082F32DFC82F30DF182FD4
:1034D0008BEB810F823010F08FE360CF8C2F90E068
:1034E000902BD73609F042C021E120935700E89590
:1034F000EC01B12C01E0209709F4AEC0C09093021A
:10350000D0909402E0909502F09096021634B9F4AF
:10351000EB2DF0E0EC29FD298491F0DEBB2069F071
:1035200042E0C40ED11CE11CF11CC0929302D09267
:103530009402E0929502F0929602B02615C0D7014F
:10354000C601B695A79597958795DDD4D7DE52E04D
:10355000C50ED11CE11CF11CC0929302D0929402C2
:10356000E0929502F09296022197C5CF8090930247
:1035700090909402A0909502B0909602163441F477
:1035800023E0F40120935700E89507B600FCFDCF37
:10359000712C00E0EC01209709F44FC0163449F576
:1035A000002311F1C0909302D0909402E090950214
:1035B000F0909602BCDE272D30E0A901582B21E0C7
:1035C000F6010A0120935700E895112442E0C40E49
:1035D000D11CE11CF11CC0929302D0929402E092A3
:1035E0009502F092960202C0A2DE782E51E00527E5
:1035F00022C09DDE682F8091930290919402A09149
:103600009502B0919602B695A7959795879583D424
:103610008091930290919402A0919502B0919602AC
:103620000296A11DB11D8093930290939402A093E2
:103630009502B09396022197AECF163409F0ADCE25
:1036400085E0F40180935700E89507B600FCFDCFB4
:10365000A4CEDB3109F040CF662079F083E080937F
:10366000E9008BB5882389F08091E80080FFF9CFCD
:103670008091E8008E778093E80084E08093E900F1
:103680008091E8008B778093E800DF91CF911F91C4
:103690000F91FF90EF90DF90CF90BF90AF909F90F1
:1036A0008F907F9008951F920F920FB60F92112462
:1036B0002F933F934F935F936F937F938F939F933A
:1036C000AF93BF93EF93FF938091E10080FF15C00C
:1036D0008091E20080FF11C08091E2008E7F809394
:1036E000E2008091E20080618093E2008091D80046
:1036F00080628093D80019BC1BBC8091E10084FFDC
:103700002DC08091E20084FF29C084E089BD86E05D
:1037100089BD09B400FEFDCF8091D8008F7D8093D4
:10372000D8008091E1008F7E8093E1008091E200DB
:103730008F7E8093E2008091E20081608093E200BE
:103740008091A202882311F084E007C08091E300F9
:1037500087FD02C081E001C083E08BBD8091E10064
:1037600083FF20C08091E20083FF1CC08091E100B4
:10377000877F8093E10082E08BBD1092A20280914E
:10378000E1008E7F8093E1008091E2008E7F809344
:10379000E2008091E20080618093E20042E060E01C
:1037A00080E028DDFF91EF91BF91AF919F918F91C4
:1037B0007F916F915F914F913F912F910F900FBE2D
:1037C0000F901F90189507B600FCFDCFF999FECF1A
:1037D000809599E0E1E0F0E0082E90935700E8959D
:1037E0000895E1E0F0E089E0809357008491089526
:1037F00029E0FC01209357008491089521E2FC0107
:10380000209357008491089507B600FCFDCFF999E5
:10381000FECF21E0FB010A0120935700E895112417
:10382000089507B600FCFDCFF999FECF25E0FB0116
:1038300020935700E89507B600FCFDCF81E1809307
:103840005700E895089507B600FCFDCFF999FECF23
:1038500023E0FB0120935700E89507B600FCFDCF5D
:1038600081E180935700E89508952F01EEB3F2E0CF
:1038700031903092CE00EEBBF798F2012EB230902C
:10388000990223101895E8E9E093C900F201189510
:103890003090CE002F01EAB5F1E03192EABDF2019D
:1038A0001895CF93DF9300D01F92CDB7DEB790E08D
:1038B00080E80FB6F89480936100909361000FBE8A
:1038C00091E095BF82E085BF809163008E7F8093F9
:1038D0006300909392021092E2001092E1008091B6
:1038E000D8008F778093D8008091D800806880932B
:1038F000D8008091D8008F7D8093D80084E089BD66
:1039000086E089BD09B400FEFDCF1BBC1092A20267
:1039100042E060E080E06EDC8091E1008E7F809389
:10392000E1008091E20081608093E2008091E200FA
:1039300088608093E2008091E0008E7F8093E000B9
:1039400084E085BD8AB1886B8AB95F9A5A9A789467
:1039500022EAE22E22E0F22E36EE832E30E3932E80
:103960004AEFC42E40E3D42EA12CB12C01E010E08C
:103970002BB529831092E9008091E80083FF1AC2D9
:10398000EAE9F2E08091F1008193EE16FF06D1F7AB
:1039900080919A02982F9F77913209F0A8C0909158
:1039A0009B02913209F057C0813A09F0A0C0809182
:1039B000E800877F8093E8008091A0029091A102A7
:1039C0008730910510F087E090E040E0E3E8F2E016
:1039D000009759F12BB52223C1F12530B1F1209187
:1039E000E80023FD32C02091E80022FD2AC020918A
:1039F000E80020FFEDCF2091F20030E0009751F079
:103A00002830310538F441914093F10001972F5F40
:103A10003F4FF4CF41E02830310509F040E02091DC
:103A2000E8002E772093E800D3CF4111D3CF09C00F
:103A30008BB5882351F0853041F08091E80083FDFB
:103A400004C08091E80082FFF3CF8091E8008B777B
:103A50008093E8004CC09032C9F5813209F047C02C
:103A60008091E800877F8093E800E3E8F2E087E058
:103A7000882311F19BB5992311F1953001F19091B3
:103A8000E80093FD1CC09091E80092FFF1CF909167
:103A9000F200992329F09091F10091938150B9F7A8
:103AA0009091E8009B779093E800E2CF853039F061
:103AB0008091E80080FD03C08BB58111F7CF809124
:103AC000E8008E778093E800A9DB11C0923279F488
:103AD000813269F48091E800877F8093E8006DDB94
:103AE00080919C0280FF02C05F9801C05F9A809124
:103AF000E80083FF51C180919A0290919B0295301A
:103B000009F467C030F4913059F168F0933041F115
:103B100043C1983009F408C1993009F414C19630B2
:103B200009F03AC178C0803881F0823809F034C198
:103B300080919E028F708093E9008091EB0085FB5D
:103B4000882780F91092E90001C080E09091E80098
:103B5000977F9093E8008093F1001092F100EFC0FE
:103B6000282F2D7F09F018C1823009F015C18091EE
:103B70009C02811125C080919E028F7009F40CC1B6
:103B80008093E9002091EB0020FF1AC0933021F4CC
:103B90008091EB00806212C09091EB009061909355
:103BA000EB00F80102C0EE0FFF1F8A95E2F7E093E9
:103BB000EA001092EA008091EB0088608093EB00AD
:103BC0001092E9008091E800877F8093E800F5DAA1
:103BD000E3C08111E1C090919C029F77792E809182
:103BE000E3008078892B8093E3008091E800877F51
:103BF0008093E800E2DA8091E80080FFFCCF8091BA
:103C0000E30080688093E300711002C082E001C08D
:103C100083E08BBDC1C08058823008F0BDC0809168
:103C20009C02F0919D02FA831B822A813B81223003
:103C3000310541F02330310551F02130310509F0D3
:103C4000ABC05CC12EE330E0E4E7F0E31BC08111C0
:103C500006C0F601249130E0EAEFF0E30FC08130B6
:103C600031F4F401249130E0E6EEF0E307C0823055
:103C700009F092C0E4ECF0E3249130E02115310525
:103C800009F48AC08091E800877F8093E8008091E2
:103C9000A0029091A1022817390708F4C90140E059
:103CA000009761F12BB52223C9F12530B9F120919C
:103CB000E80023FD33C02091E80022FD2BC02091B5
:103CC000E80020FFEDCF2091F20030E0009759F09E
:103CD0002830310540F444914093F100319601972A
:103CE0002F5F3F4FF3CF41E02830310509F040E02E
:103CF0002091E8002E772093E800D2CF4111D2CF57
:103D000009C08BB5882351F0853041F08091E800DF
:103D100083FD04C08091E80082FFF3CF8091E8002A
:103D20008B778093E80038C08038B1F58091E80047
:103D3000877F8093E8008091A2028093F1008091B8
:103D4000E8008E7742CF811127C080919C0290912C
:103D50009D029927029704F58091E800877F809360
:103D6000E80070909C027092A20227DA711006C0DF
:103D70008091E30087FD02C081E001C084E08BBD3B
:103D800042E061EC82E036DA46E361E883E032DA71
:103D900042E260E884E02EDA8091E80083FF0AC006
:103DA0008091E800877F8093E8008091EB0080623B
:103DB0008093EB008BB5843081F02981243009F0A9
:103DC000D7CD109283021092840210928502109235
:103DD000860224DA5D9A5C9AC7CD90918202911195
:103DE00016C08FE99FE00197F1F700C000008091B5
:103DF000E00081608093E0009CE088E10FB6F894D9
:103E0000A895809360000FBE90936000FFCF8093D1
:103E1000E9008091E80082FF0AC09091F2009111C0
:103E200007C08091E8008B778093E80001C090E0A4
:103E300080919702813029F4992309F44DC091DAD9
:103E40004BC0823009F048C0809199022EB3821B8A
:103E500080958F779923B1F08917A0F0F2E0E09177
:103E600099028091F1008193EF779150D1F7809181
:103E7000E8008B778093E800E093990288EB8093C9
:103E8000C90002C08F3719F05C9893E0A92E8AB55B
:103E900090919802891B01F1A89902C08F33C8F054
:103EA00093E09093E9009091E80090FF12C08F3367
:103EB00008F08FE3E0919802F1E091919093F10086
:103EC0008150D1F78091E8008E778093E800E093ED
:103ED00098025D9883E0B82EA89B4ACD91E095BBEF
:103EE000BB2021F0BA94B11001C05D9AAA2009F458
:103EF0003FCDAA94A1103CCD5C9A3ACD22E130E0AE
:103F0000E2EBF0E3BFCEF999FECF92BD81BDF89A06
:103F1000992780B50895262FF999FECF1FBA92BD33
:103F200081BD20BD0FB6F894FA9AF99A0FBE01969A
:103F30000895A1E21A2EAA1BBB1BFD010DC0AA1FEA
:103F4000BB1FEE1FFF1FA217B307E407F50720F002
:103F5000A21BB30BE40BF50B661F771F881F991F7D
:103F60001A9469F760957095809590959B01AC01C6
:0A3F7000BD01CF010895F894FFCFC2
:103F7A000100000000000008484C322E302E3500A7
:103FA00052CC3FCC31CC2ACC23CC1BCC0CCC0895AA
:083FB000089508950895089595
:103FE000DFCFDFCFDFCFDFCFDFCFDFCFDFCFDFCF61
:083FF000DFCFDFCFDFCFDFCF11
:083FF8000030000000DFFBDCDB
:0400000300003000C9
:00000001FF
