:103000007EC00000D9C00000D7C00000D5C00000BD
:10301000D3C00000D1C00000CFC00000CDC0000070
:10302000CBC00000C9C00000C7C000006DC50000D3
:10303000C3C00000C1C00000BFC00000BDC0000090
:10304000BBC00000B9C00000B7C00000B5C00000A0
:10305000B3C00000B1C00000AFC000004AC600000D
:1030600035C60000A9C00000A7C00000A5C0000030
:10307000A3C0000009023E000201008032090400E2
:1030800000010202010005240010010424020205CF
:1030900024060001070582030800FF09040100025D
:1030A0000A00000007050402200001070583024012
:1030B0000001120110010200000841234300050233
:1030C00001020001200348006F006F0064004C0003
:1030D0006F0061006400650072003200200055003E
:1030E0006E006F00000012034E00690063006F0065
:1030F00048006F006F0064000000040309041124FD
:103100001FBECFEFD2E0DEBFCDBF2091FF021092F5
:10311000FF02909180021092800284B714BE0FB615
:10312000F894A89530916000386130936000109257
:1031300060000FBE5D9A5C9AE0E0F0E0459154912A
:103140004F3F5F4F21F181FF18C0273701F19737BB
:10315000F1F087E78093FF02809380028FEF9EE972
:1031600024E2815090402040E1F700C0000010921E
:10317000FF02109280021BD30AC080FF02C017D347
:1031800006C083FF04C0273711F09737C1F712E05C
:10319000A2E8B2E0E6E7FFE302C005900D92A23993
:1031A000B107D9F722E0A2E9B2E001C01D92A33A2B
:1031B000B207E1F7A7D5DDC623CF80919B0287FF39
:1031C0000FC08091E80082FD04C08BB58111F9CF5A
:1031D00010C08091E8008B770AC08BB5882349F036
:1031E0008091E80080FFF9CF8091E8008E7780938E
:1031F000E80008958F708093E900EBEEF0E08081A5
:1032000081608083EDEEF0E010826093EC004083FB
:103210008091EE00881F8827881F0895CF935B9ABE
:103220001092C9001092C8001092CA001EBA1092E3
:103230009902109298021ABC209183023091840264
:1032400040918502509186022115310541055105B5
:1032500019F4109297024FC0211581EE38074105ED
:10326000510521F481E08093970245C082E080936C
:10327000970280918802813021F0823021F4C0E2EF
:1032800003C0C0E301C0C0E080918702823009F42E
:10329000C86080918902873031F0883031F0863003
:1032A00029F4C26003C0C46001C0C660DA01C9016C
:1032B000B695A79597958795BC01CD0160587B473A
:1032C000814E9F4F34D62150310920FD04C0211575
:1032D00080E1380720F03695279580E001C082E034
:1032E0003093CD002093CC00C093CA008093C800D7
:1032F00088E98093C9005B98CF910895CF93EBE95B
:10330000F2E08091F100819342E0E33AF407C9F7DB
:1033100080919B02982F9F77913209F0A8C09091DD
:103320009C02913209F057C0813A09F0A0C0809107
:10333000E800877F8093E8008091A1029091A2022B
:103340008730910510F087E090E040E0E3E8F2E09C
:10335000009759F12BB52223C1F12530B1F120910D
:10336000E80023FD32C02091E80022FD2AC0209110
:10337000E80020FFEDCF2091F20030E0009751F0FF
:103380002830310538F441914093F10001972F5FC7
:103390003F4FF4CF41E02830310509F040E0209163
:1033A000E8002E772093E800D3CF4111D3CF09C096
:1033B0008BB5882351F0853041F08091E80083FD82
:1033C00004C08091E80082FFF3CF8091E8008B7702
:1033D0008093E8004CC09032C9F5813209F047C0B3
:1033E0008091E800877F8093E800E3E8F2E087E0DF
:1033F000882309F19BB5992311F1953001F1909142
:10340000E80093FD1CC09091E80092FFF1CF9091ED
:10341000F200992329F09091F10091938150B9F72E
:103420009091E8009B779093E800E2CF8BB58823DA
:1034300031F0853021F08091E80080FFF7CF809156
:10344000E8008E778093E800E9DE11C0923279F4CB
:10345000813269F48091E800877F8093E800ADDED7
:1034600080919D0280FF02C05F9801C05F9A8091A9
:10347000E80083FF55C180919B0290919C0295309A
:1034800009F469C030F4913059F168F0933041F19A
:1034900047C1983009F40CC1993009F418C196302D
:1034A00009F03EC179C0803881F0823809F038C116
:1034B00080919F028F708093E9008091EB0085FBE3
:1034C000882780F91092E90001C080E09091E8001F
:1034D000977F9093E8008093F1001092F100F3C081
:1034E000282F2D7F09F01CC1823009F019C180916D
:1034F0009D02811127C080919F028F7009F410C135
:103500008093E9002091EB0020FF1CC0933021F450
:103510008091EB00806214C09091EB0090619093D9
:10352000EB0021E030E0A90102C0440F551F8A954D
:10353000E2F74093EA001092EA008091EB00886085
:103540008093EB001092E9008091E800877F8093E0
:10355000E80033DEE5C08111E3C0C0919D02CF7762
:103560008091E30080788C2B8093E3008091E800C9
:10357000877F8093E80021DE8091E80080FFFCCF08
:103580008091E30080688093E300C11102C082E073
:1035900001C083E08BBDC4C08058823008F0C0C039
:1035A00020919D0280919E0290E08230910539F039
:1035B0008330910549F0019709F0B2C0C0C08EE395
:1035C00090E0E4E7F0E321C0211108C0EAEFF0E366
:1035D000E4918E2F90E0EAEFF0E314C0213041F443
:1035E000E6EEF0E3E4918E2F90E0E6EEF0E30AC021
:1035F000223009F095C0E4ECF0E3E4918E2F90E0E6
:10360000E4ECF0E3009709F48BC02091E800277FF9
:103610002093E8002091A1023091A2028217930723
:1036200008F49C0140E02115310561F18BB5882338
:10363000C9F18530B9F18091E80083FD33C08091F4
:10364000E80082FD2BC08091E80080FFECCF8091E4
:10365000F20090E02115310559F08830910540F4D1
:1036600044914093F1003196215031090196F2CFF7
:1036700041E0089709F040E08091E8008E77809360
:10368000E800D1CF4111D2CF09C08BB5882351F0CA
:10369000853041F08091E80083FD04C08091E8000E
:1036A00082FFF3CF8091E8008B778093E80038C0E9
:1036B0008038B1F58091E800877F8093E8008091A1
:1036C0009A028093F1008091E8008E7740CF8111BB
:1036D00027C080919D0290919E029927029704F540
:1036E0008091E800877F8093E800C0919D02C0939D
:1036F0009A0263DDC11106C08091E30087FD02C01C
:1037000081E001C084E08BBD42E061EC82E072DDCB
:1037100046E361E883E06EDD42E260E884E06ADD72
:103720008091E80083FF10C08091E800877F80933C
:10373000E8008091EB0080628093EB0005C082E19D
:1037400090E0E2EBF0E361CFCF91089593E09093A6
:10375000E9009091E80090FD04C09BB59111F9CF6C
:103760000EC08093F10081E0860D8F3310F4682E37
:103770000895612C8091E8008E778093E800089589
:1037800084E08093E9008091E80085FD0DC0809180
:10379000E8008B778093E8008091E80082FDF3CF0A
:1037A0008BB58111F9CF02C08091F1000895E0E05E
:1037B000F0E009947F928F929F92AF92BF92CF9246
:1037C000DF92EF92FF920F931F93CF93DF9384E0EA
:1037D0008093E9008091E80082FF88C1612CD0DFEE
:1037E000D82F853419F41092820207C088E88D0F13
:1037F000823010F0D43521F4C3DF8DE0A7DF5CC147
:10380000D035D9F3DC34C9F3D43721F484E49EDF16
:1038100080E0F4CFD13611F489E5F0CFD134D1F482
:10382000AFDFC82FADDF2C2F30E0322F2227330F30
:1038300090E0880F991F822B932B092E000CAA0B66
:10384000BB0B8093930290939402A0939502B09344
:103850009602D3CFD03711F483E5D0CFD33551F4CE
:10386000CAE8D2E001E912E0899170DF0C171D0768
:10387000D9F722C1D63521F481E368DF80E3BECFDA
:10388000D33731F482E862DF84E960DF8EE1B6CFBE
:10389000D536B9F4E0E0F0E083E095E0809357009E
:1038A000E89507B600FCFDCF90935700E89507B662
:1038B00000FCFDCFE058FF4FE11520E3F20771F760
:1038C0009CCFDC3651F45CDF809599E0E1E0F0E0DC
:1038D000082E90935700E89590CFD23719F4E1E085
:1038E000F0E00EC0D63419F4E0E0F0E009C0DE34B8
:1038F00019F4E3E0F0E004C0D13539F4E2E0F0E09F
:1039000089E080935700849179CFD23631F489E5EC
:103910001DDF80E01BDF80E871CFD23419F0D7368D
:1039200009F0C7C02DDF082F2BDFC82F29DF182F84
:103930008BEB810F823010F08FE360CF8C2F90E003
:10394000902BD73609F042C021E120935700E8952B
:10395000EC01B12C01E0209709F4AEC0C0909302B5
:10396000D0909402E0909502F09096021634B9F44B
:10397000EB2DF0E0EC29FD298491E8DEBB2069F015
:1039800042E0C40ED11CE11CF11CC0929302D09203
:103990009402E0929502F0929602B02615C0D701EB
:1039A000C601B695A79597958795ABD2CFDE52E025
:1039B000C50ED11CE11CF11CC0929302D09294025E
:1039C000E0929502F09296022197C5CF80909302E3
:1039D00090909402A0909502B0909602163441F413
:1039E00023E0F40120935700E89507B600FCFDCFD3
:1039F000712C00E0EC01209709F44FC0163449F512
:103A0000002311F1C0909302D0909402E0909502AF
:103A1000F0909602B5DE272D30E0A901582B21E069
:103A2000F6010A0120935700E895112442E0C40EE4
:103A3000D11CE11CF11CC0929302D0929402E0923E
:103A40009502F092960202C09BDE782E51E0052787
:103A500022C096DE682F8091930290919402A091EB
:103A60009502B0919602B695A7959795879551D2F4
:103A70008091930290919402A0919502B091960248
:103A80000296A11DB11D8093930290939402A0937E
:103A90009502B09396022197AECF163409F0ADCEC1
:103AA00085E0F40180935700E89507B600FCFDCF50
:103AB000A4CEDB3109F040CF662081F083E0809313
:103AC000E9008091E80080FD04C08BB58111F9CF39
:103AD0000DC08091E8008E778093E80084E08093A9
:103AE000E9008091E8008B778093E800DF91CF9127
:103AF0001F910F91FF90EF90DF90CF90BF90AF900C
:103B00009F908F907F9008951F920F920FB60F9203
:103B100011242F933F934F935F936F937F938F93D2
:103B20009F93AF93BF93EF93FF938091E10080FF4A
:103B300015C08091E20080FF11C08091E2008E7F6D
:103B40008093E2008091E20080618093E2008091A6
:103B5000D80080628093D80019BC1BBC8091E10022
:103B600084FF2DC08091E20084FF29C084E089BDDC
:103B700086E089BD09B400FEFDCF8091D8008F7D1D
:103B80008093D8008091E1008F7E8093E100809146
:103B9000E2008F7E8093E2008091E200816080935A
:103BA000E20080919A02882311F084E007C080919E
:103BB000E30087FD02C081E001C083E08BBD8091FE
:103BC000E10083FF20C08091E20083FF1CC0809150
:103BD000E100877F8093E10082E08BBD10929A0222
:103BE0008091E1008E7F8093E1008091E2008E7FE2
:103BF0008093E2008091E20080618093E20042E0E5
:103C000060E080E0F7DAFF91EF91BF91AF919F9173
:103C10008F917F916F915F914F913F912F910F9075
:103C20000FBE0F901F90189507B600FCFDCFF999B5
:103C3000FECF809599E0E1E0F0E0082E90935700E8
:103C4000E8950895E1E0F0E089E0809357008491E1
:103C5000089529E0FC01209357008491089521E202
:103C6000FC01209357008491089507B600FCFDCF16
:103C7000F999FECF21E0FB010A0120935700E89556
:103C80001124089507B600FCFDCFF999FECF25E079
:103C9000FB0120935700E89507B600FCFDCF81E1BA
:103CA00080935700E895089507B600FCFDCFF99979
:103CB000FECF23E0FB0120935700E89507B600FCF8
:103CC000FDCF81E180935700E89508952F01EEB371
:103CD000F2E031903092CE00EEBBF798F2012EB2B6
:103CE0003090990223101895E8E9E093C900F20199
:103CF00018953090CE002F01EAB5F1E03192EABD7F
:103D0000F201189590E080E80FB6F8948093610076
:103D1000909361000FBE91E095BF82E085BF8091D6
:103D200063008E7F80936300909392021092E20072
:103D30001092E1008091D8008F778093D800809115
:103D4000D80080688093D8008091D8008F7D8093C0
:103D5000D80084E089BD86E089BD09B400FEFDCFAE
:103D60001BBC10929A0242E060E080E043DA80914E
:103D7000E1008E7F8093E1008091E200816080937A
:103D8000E2008091E20088608093E2008091E00090
:103D90008E7F8093E00084E085BD8AB1886B8AB90C
:103DA0005F9A5A9A7894C4E0D3E018EB01E010923D
:103DB000E9008091E80083FDA1DA8BB58430C9F772
:103DC000F12CE12C80918202811116C08FE99FE0D5
:103DD0000197F1F700C000008091E00081608093BE
:103DE000E0009CE088E10FB6F894A895809360000D
:103DF0000FBE90936000FFCF80919702813011F445
:103E0000D9DC56C0823009F053C0809199029EB32C
:103E1000891B80958F77C093E9009091E80092FF0D
:103E200020C09091F200911106C08091E8008B773C
:103E30008093E80062C0891708F45FC0F2E0E09167
:103E400099028091F1008193EF779150D1F78091A1
:103E5000E8008B778093E800E09399021093C90003
:103E60004CC08F3709F049C08AB590919802891BE0
:103E7000F9F0A89902C08F33C0F0D093E900909177
:103E8000E80090FF12C08F3308F08FE3E0919802B2
:103E9000F1E091919093F1008150D1F78091E80089
:103EA0008E778093E800E09398025D9893E0E92E86
:103EB000A89B0DC005BBEE2021F0EA94E11001C0E3
:103EC0005D9AFF2021F0FA94F11001C05C9A1092E3
:103ED000E9008091E80083FD11DA8BB5843009F4A4
:103EE00071CF5D9A5C9A10928302109284021092B4
:103EF00085021092860292D95ACF5C9883E0F82E00
:103F0000B3CFF999FECF92BD81BDF89A992780B5BC
:103F10000895262FF999FECF1FBA92BD81BD20BD0D
:103F20000FB6F894FA9AF99A0FBE01960895A1E295
:103F30001A2EAA1BBB1BFD010DC0AA1FBB1FEE1F23
:103F4000FF1FA217B307E407F50720F0A21BB30B6E
:103F5000E40BF50B661F771F881F991F1A9469F7EA
:103F600060957095809590959B01AC01BD01CF0146
:063F70000895F894FFCF54
:103F76000100000000000008484C322E302E3500AB
:103FA00083CE70CE62CE5BCE54CE4CCE3DCE089545
:083FB000089508950895089595
:103FE000DFCFDFCFDFCFDFCFDFCFDFCFDFCFDFCF61
:083FF000DFCFDFCFDFCFDFCF11
:083FF8000030000000DFFBDCDB
:0400000300003000C9
:00000001FF
