:1070000055C00000A4C00000A2C00000A0C0000045
:107010009EC000009CC000009AC0000098C0000004
:1070200096C0000094C0000000C5000090C00000A1
:107030008EC000008CC000008AC0000088C0000024
:1070400086C0000084C0000082C0000080C0000034
:107050007EC000007CC000007AC0000078C0000044
:1070600076C00000F5C50000E0C5000070C000005B
:107070006EC000006CC000006AC0000068C0000064
:1070800066C0000064C0000062C0000060C0000074
:107090005EC000005CC000005AC0000058C0000084
:1070A00056C0000054C0000052C0000011241FBE92
:1070B000CFEFDAE0DEBFCDBF9091FF0A1092FF0A5A
:1070C00084B714BE0FB6F894A8952091600028618B
:1070D00020936000109260000FBE5D9A289AE0E055
:1070E000F0E0259134912F3F3F4FE1F081FF12C036
:1070F0009737C1F087E78093FF0A8FEF9EE924E27C
:10710000815090402040E1F700C000001092FF0A3B
:10711000EBD208C080FF02C0E7D204C083FF02C0E8
:107120009737D1F713E0A2E8B2E0E2E0FFE702C050
:1071300005900D92AC31B107D9F723E0ACE1B3E093
:1071400001C01D92AD32B207E1F78BD5D8C658CF3A
:107150008091250387FF0FC08091E80082FD04C065
:107160008BB58111F9CF10C08091E8008B770AC0F0
:107170008BB5882349F08091E80080FFF9CF80919A
:10718000E8008E778093E80008958F708093E9007F
:10719000EBEEF0E0808181608083EDEEF0E0108224
:1071A0006093EC0040838091EE00881F8827881F41
:1071B000089520912B0330912C032617370748F0B0
:1071C0006115710539F42091E8002E772093E800CD
:1071D00001C0B901FC0120E06115710571F18BB5A9
:1071E0008823E9F18530E9F18091E80083FD3BC017
:1071F0008091E80082FD2DC08091E80080FFECCFF7
:107200002091F3008091F20090E0922B61157105BE
:1072100051F08830910538F421912093F1006150AC
:1072200071090196F3CF21E0089709F020E08091E1
:10723000E8008E778093E800CFCF2111D0CF09C02E
:107240008BB5882361F0853061F08091E80083FD83
:107250000AC08091E80082FFF3CF80E0089582E0C9
:10726000089583E0089581E00895CF935B9A10928A
:10727000C9001092C8001092CA001EBA10922303CF
:10728000109222031ABC2091830230918402409113
:10729000850250918602211531054105510519F4E9
:1072A0001092210355C0203B84E038074105510569
:1072B00021F481E0809321034BC082E0809321037D
:1072C00080918802813021F0823021F4C0E203C035
:1072D000C0E301C0C0E080918702823009F4C86039
:1072E00080918902873031F0883031F0863029F47E
:1072F000C26003C0C46001C0C660DA01C901B695AE
:10730000A79597958795BC01CD0160587B47814E25
:107310009F4FD3D52150310920FD04C0211580E1B4
:10732000380718F03695279505C02232310521F42B
:1073300020E130E080E001C082E03093CD00209376
:10734000CC00C093CA008093C80088E98093C9002C
:107350005B98CF910895CF93E5E2F3E08091F1003F
:10736000819343E0ED32F407C9F780912503982F0C
:107370009F77913209F068C090912603913299F479
:10738000813A09F061C08091E800877F8093E8002E
:1073900067E070E083E892E00CDF8091E8008B7793
:1073A0008093E80051C0903209F03DC0813209F06D
:1073B0004BC08091E800877F8093E800E3E8F2E02B
:1073C00027E0222329F18BB5882331F1853021F183
:1073D0008091E80083FD20C08091E80082FFF1CF1A
:1073E0003091F3008091F20090E0932B892B29F0EB
:1073F0008091F1008193215099F78091E8008B777B
:107400008093E800DECF8BB5882331F0853021F002
:107410008091E80080FFF7CF8091E8008E7780931D
:10742000E80023DF11C0923279F4813269F480914F
:10743000E800877F8093E8008BDE8091270380FF40
:1074400002C05C9801C05C9A8091E80083FFEBC0A9
:107450008091250390912603953009F466C030F49D
:10746000913059F168F0933041F1DDC0983009F462
:107470009FC0993009F4AEC0963009F0D4C076C0F0
:10748000803881F0823809F0CEC0809129038F7056
:107490008093E9008091EB0085FB882780F91092AA
:1074A000E90001C080E09091E800977F9093E800A8
:1074B0008093F1001092F10086C0282F2D7F09F0F3
:1074C000B2C0823009F0AFC080912703811127C07C
:1074D000809129038F7009F4A6C08093E900209160
:1074E000EB0020FF1CC0933021F48091EB00806200
:1074F00014C09091EB0090619093EB0021E030E09C
:10750000A90102C0440F551F8A95E2F74093EA0093
:107510001092EA008091EB0088608093EB0010925B
:10752000E9008091E800877F51C081117CC0C09143
:107530002703CF778091E30080788C2B8093E30042
:107540008091E800877F8093E80002DE8091E80068
:1075500080FFFCCF8091E30080688093E300C1113D
:1075600002C082E001C083E08BBD5DC080588230E4
:1075700008F059C0209127038091280390E08230C1
:10758000910539F08330910549F0019709F04BC01E
:1075900059C06EE370E084EC92E067C0222309F4E6
:1075A00056C0213009F458C0223009F03CC059C0FF
:1075B0008038C9F58091E800877F8093E80080914A
:1075C00024038093F1008091E8008E778093E80097
:1075D000BFDD29C0811127C0809127039091280326
:1075E0009927029704F58091E800877F8093E8004F
:1075F000C0912703C0932403ABDDC11106C0809165
:10760000E30087FD02C081E001C084E08BBD42E061
:1076100061EC82E0BADD46E361E883E0B6DD42E298
:1076200060E884E0B2DD8091E80083FF2AC08091A9
:10763000E800877F8093E8008091EB008062809370
:10764000EB001FC062E170E082E093E00EC064E0F6
:1076500070E08CEA92E009C062E170E080EB92E0B9
:1076600004C060E270E08AE892E02091E800277FA1
:107670002093E8009EDD8091E8008B778093E800FE
:10768000D2CFCF91089593E09093E9009091E800D4
:1076900090FD04C09BB59111F9CF0EC08093F1000D
:1076A00081E0860D8F3310F4682E0895612C80914F
:1076B000E8008E778093E800089584E08093E900E5
:1076C0008091E80085FD0DC08091E8008B77809364
:1076D000E8008091E80082FDF3CF8BB58111F9CFEE
:1076E00002C08091F1000895E0E0F0E009947F92FB
:1076F0008F929F92AF92BF92CF92DF92EF92FF92C2
:107700000F931F93CF93DF9384E08093E9008091E0
:10771000E80082FF7CC1612CD0DFD82F853419F4BA
:107720001092820207C088E88D0F823010F0D435A5
:1077300021F4C3DF8DE0A7DF50C1D035D9F3DC34AD
:10774000C9F3D43721F484E49EDF80E0F4CFD1364E
:1077500011F489E5F0CFD134D1F4AFDFC82FADDF1C
:107760002C2F30E0322F2227330F90E0880F991F03
:10777000822B932B092E000CAA0BBB0B80931D03AD
:1077800090931E03A0931F03B0932003D3CFD03751
:1077900011F483E5D0CFD33551F4C4E1D3E00BE14C
:1077A00013E0899170DF0C171D07D9F716C1D63584
:1077B00021F481E368DF80E3BECFD33731F487E87B
:1077C00062DF85E960DF8EE1B6CFD536B9F4E0E05F
:1077D000F0E083E095E080935700E89507B600FC61
:1077E000FDCF90935700E89507B600FCFDCFE05819
:1077F000FF4FE11520E7F20771F79CCFD23719F45C
:10780000E1E0F0E00EC0D63419F4E0E0F0E009C0A9
:10781000DE3419F4E3E0F0E004C0D13539F4E2E0FD
:10782000F0E089E080935700849185CFD23631F41F
:1078300089E529DF80E027DF80E87DCFD23419F0A9
:10784000D73609F0C7C039DF082F37DFC82F35DF3B
:10785000182F8BEB810F823010F08FE36CCF8C2FC1
:1078600090E0902BD73609F042C021E120935700D9
:10787000E895EC01B12C01E0209709F4AEC0C0906E
:107880001D03D0901E03E0901F03F09020031634D8
:10789000B9F4EB2DF0E0EC29FD298491F4DEBB2056
:1078A00069F042E0C40ED11CE11CF11CC0921D0322
:1078B000D0921E03E0921F03F0922003B02615C061
:1078C000D701C601B695A79597958795E0D2DBDEDF
:1078D00052E0C50ED11CE11CF11CC0921D03D092D8
:1078E0001E03E0921F03F09220032197C5CF8090E2
:1078F0001D0390901E03A0901F03B0902003163428
:1079000041F423E0F40120935700E89507B600FC0A
:10791000FDCF712C00E0EC01209709F44FC0163424
:1079200049F5002311F1C0901D03D0901E03E09093
:107930001F03F0902003C1DE272D30E0A901582B52
:1079400021E0F6010A0120935700E895112442E056
:10795000C40ED11CE11CF11CC0921D03D0921E0369
:10796000E0921F03F092200302C0A7DE782E51E0C0
:10797000052722C0A2DE682F80911D0390911E036F
:10798000A0911F03B0912003B695A7959795879571
:1079900086D280911D0390911E03A0911F03B09188
:1079A00020030296A11DB11D80931D0390931E0319
:1079B000A0931F03B09320032197AECF163409F094
:1079C000B9CE85E0F40180935700E89507B600FC36
:1079D000FDCFB0CEDB3109F040CF662081F083E0EF
:1079E0008093E9008091E80080FD04C08BB581118F
:1079F000F9CF0DC08091E8008E778093E80084E095
:107A00008093E9008091E8008B778093E800DF9114
:107A1000CF911F910F91FF90EF90DF90CF90BF908B
:107A2000AF909F908F907F9008951F920F920FB606
:107A30000F9211242F933F934F935F936F937F93F4
:107A40008F939F93AF93BF93EF93FF938091DA004F
:107A500080FF19C08091D80080FF15C08091DA00A6
:107A60008E7F8093DA008091D90080FF0AC080E188
:107A700089BD82E189BD09B400FEFDCF81E08BBDE7
:107A800002C019BC1BBC8091E10080FF16C0809130
:107A9000E20080FF12C08091E2008E7F8093E200BE
:107AA0008091E20080618093E2008091D800806242
:107AB0008093D80019BC85E08BBD8091E10084FFE4
:107AC0002DC08091E20084FF29C080E189BD82E160
:107AD00089BD09B400FEFDCF8091D8008F7D8093D1
:107AE000D8008091E1008F7E8093E1008091E200D8
:107AF0008F7E8093E2008091E20081608093E200BB
:107B000080912403882311F084E007C08091E30072
:107B100087FD02C081E001C083E08BBD8091E10060
:107B200083FF20C08091E20083FF1CC08091E100B0
:107B3000877F8093E10082E08BBD109224038091C7
:107B4000E1008E7F8093E1008091E2008E7F809340
:107B5000E2008091E20080618093E20042E060E018
:107B600080E013DBFF91EF91BF91AF919F918F91D7
:107B70007F916F915F914F913F912F910F900FBE29
:107B80000F901F90189507B600FCFDCFF999FECF16
:107B9000809599E0E1E0F0E0082E90935700E89599
:107BA0000895E1E0F0E089E0809357008491089522
:107BB00029E0FC01209357008491089521E2FC0103
:107BC000209357008491089507B600FCFDCFF999E2
:107BD000FECF21E0FB010A0120935700E895112414
:107BE000089507B600FCFDCFF999FECF25E0FB0113
:107BF00020935700E89507B600FCFDCF81E1809304
:107C00005700E895089507B600FCFDCFF999FECF1F
:107C100023E0FB0120935700E89507B600FCFDCF59
:107C200081E180935700E89508952F01EEB3F2E0CB
:107C300031903092CE00EEBBF798F2012EB2309028
:107C4000230323101895E8E9E093C900F201189581
:107C50003090CE002F01EAB5F1E03192EABDF20199
:107C6000189590E080E80FB6F894809361009093A7
:107C700061000FBE91E095BF82E085BF8091D80082
:107C80008F7E8093D8008091D70081608093D70049
:107C9000C4E0C2BF90931C038091D8008E7F809374
:107CA000D8001092E2001092DA001092E100809168
:107CB000D8008F778093D8008091D8008068809317
:107CC000D8008091D8008F7D8093D80019BC1BBC50
:107CD000109224038091E0008B7F8093E0008091DC
:107CE000D80081608093D80042E060E080E04DDA07
:107CF0008091E1008E7F8093E1008091E2008160BD
:107D00008093E2008091E20088608093E20080919D
:107D1000E0008E7F8093E0008091D80080618093A6
:107D2000D800C5BD88E38AB9209A5C9A5A9A78949B
:107D3000D3E018EB01E01092E9008091E80083FDA8
:107D40000ADB8BB58430C9F7F12CE12C80918202DB
:107D5000811116C08FE99FE00197F1F700C0000084
:107D60008091E00081608093E0009CE088E10FB6A4
:107D7000F894A895809360000FBE90936000FFCFA9
:107D800080912103813011F4B2DC58C0823009F0B7
:107D900055C0809123039EB3891B80958F77C09334
:107DA000E9009091E80092FF22C09091F300909139
:107DB000F200911106C08091E8008B778093E80073
:107DC00062C0891708F45FC0F2E0E091230380915C
:107DD000F1008193EF779150D1F78091E8008B7794
:107DE0008093E800E09323031093C9004CC08F37C1
:107DF00009F049C08AB590912203891BF9F0A8992E
:107E000002C08F33C0F0D093E9009091E80090FF5A
:107E100012C08F3308F08FE3E0912203F1E09191DB
:107E20009093F1008150D1F78091E8008E77809394
:107E3000E800E09322035D9893E0E92EA89B0DC033
:107E400005BBEE2021F0EA94E11001C05D9AFF200D
:107E500021F0FA94F11001C0289A1092E900809163
:107E6000E80083FD78DA8BB5843009F46FCF5D9A32
:107E7000289A109283021092840210928502109226
:107E80008602F3D958CF289883E0F82EB3CFF9991A
:107E9000FECF92BD81BDF89A992780B50895262F0F
:107EA000F999FECF1FBA92BD81BD20BD0FB6F894DF
:107EB000FA9AF99A0FBE01960895A1E21A2EAA1B0A
:107EC000BB1BFD010DC0AA1FBB1FEE1FFF1FA2178A
:107ED000B307E407F50720F0A21BB30BE40BF50B87
:107EE000661F771F881F991F1A9469F76095709510
:107EF000809590959B01AC01BD01CF010895F89448
:027F0000FFCFB1
:107F02000100000000000008200348006F006F001D
:107F120064004C006F006100640065007200320072
:107F220020004C0065006F000000040309041203E6
:107F32004E00690063006F0048006F006F0064002C
:107F4200000009023E000201008032090400000123
:107F52000202010005240010010424020205240685
:107F62000001070582030800FF09040100020A005C
:107F720000000705040220000107058302400001FA
:107F8200120110010200000841233600050201021D
:0A7F92000001484C322E302E35005D
:107FA00032CE1FCE11CE0ACE03CEFBCDECCD08953E
:087FB000089508950895089555
:107FE000DFCFDFCFDFCFDFCFDFCFDFCFDFCFDFCF21
:087FF000DFCFDFCFDFCFDFCFD1
:087FF8000070000000DFFBDC5B
:040000030000700089
:00000001FF
