:1070000039C0000083C0000081C000007FC00000C4
:107010007DC000007BC0000079C0000077C0000088
:1070200075C0000073C0000071C0000046C50000BC
:107030006DC000006BC0000069C0000067C00000A8
:1070400065C0000063C0000061C000005FC00000B8
:107050005DC000005BC0000059C00000ABC3000071
:1070600055C0000053C0000051C000004FC00000D8
:107070004DC0000011241FBECFEFD4E0DEBFCDBF56
:10708000909180021092800284B714BE28E10FB65E
:10709000F89420936000109260000FBEE0E0F0E0F2
:1070A000259134912F3F3F4FE1F081FF12C0973778
:1070B000C1F087E7809380028FEF9EE924E2815040
:1070C00090402040E1F700C00000109280021FD0E5
:1070D00008C080FF02C01BD004C083FF02C09737E6
:1070E000D1F711E0A0E0B1E0EEE8FEE702C00590C4
:1070F0000D92AA39B107D9F712E0AAE9B1E001C0AF
:107100001D92AE32B107E1F736D0BFC679CF8BB151
:1071100080638BB9E0E0F0E0099484E08093E900BB
:107120008091E80085FD0DC08091E8008B77809309
:10713000E8008091E80082FDF3CF8EB38111F9CF92
:1071400002C08091F100089593E09093E90090913E
:10715000E80095FF03C08093F10008959091E80046
:107160009E779093E8009091E80090FDF4CF9EB355
:107170009111F9CF0895CF93DF9300D000D0CDB710
:10718000DEB790E080E80FB6F894809361009093AA
:1071900061000FBE81E085BF82E085BF7FD484E0BF
:1071A00085BD8AB1886B8AB98BB1846B8BB97894B1
:1071B00013E0BB24B394E5E08E2E212C312C82E920
:1071C00091E027E0280F298384E08093E9008091F3
:1071D000E80082FF8DC1A1DF982F80919E0181116F
:1071E00013C08091C80085FFFCCF9093CE008091A2
:1071F000F200811105C08091E8008B778093E80050
:107200005C9810939F0178C1953419F41092000195
:1072100032C088E8890F823010F0943511F47DDF98
:107220002AC0903541F19C3431F1943721F484E443
:107230008BDF80E003C0913619F489E585DF5CC1FE
:107240009134D9F46ADF082F68DF90E0880F991F26
:10725000202F30E0322F2227330F822B932BAA27A7
:1072600097FDA095BA2F80939A0190939B01A093CC
:107270009C01B0939D018DE0E1CF903711F483E53F
:10728000DDCF933561F452E9E52E51E0F52EF7019B
:1072900081917F0159DF29812E11F9CF2DC19635BA
:1072A00021F481E351DF80E3C9CF933731F48AE8D9
:1072B0004BDF85E949DF8EE1C1CF9536A9F4E0E0E7
:1072C000F0E010935700E89507B600FCFDCF8092E0
:1072D0005700E89507B600FCFDCFE058FF4FE115D9
:1072E00080E7F80771F7C7CF9C3651F416DF809519
:1072F00099E0E1E0F0E0082E90935700E895BBCFCD
:10730000923721F489E0E1E0F0E010C0963419F4FE
:1073100089E0F1010BC09E3421F489E0E3E0F0E064
:1073200005C0913539F489E0E2E0F0E08093570040
:10733000849184CF923631F489E506DF80E004DF62
:1073400080E87CCF923419F0973609F0CDC09A834B
:10735000E4DEE82EF12CFE2CEE24DFDEE82ADDDE72
:10736000082F8BEB800F9A81823010F08FE366CF6D
:10737000973609F044C081E180935700E8953701C2
:10738000A12C6114710409F4B7C0C0909A01D09087
:107390009B01E0909C01F0909D010634B9F4EA2D28
:1073A000F0E0EC29FD298491CFDEAA2069F0F2E01B
:1073B000CF0ED11CE11CF11CC0929A01D0929B010E
:1073C000E0929C01F0929D01AB2415C0D701C6014B
:1073D000B695A7959795879542D5B6DE22E0C20E61
:1073E000D11CE11CF11CC0929A01D0929B01E09249
:1073F0009C01F0929D0181E0681A7108C2CF409013
:107400009A0150909B0160909C0170909D01063400
:1074100039F4F20110935700E89507B600FCFDCF50
:10742000FC82EB82912CA12CEB81FC81EF2B09F4E7
:1074300050C0063431F5AA2001F1C0909A01D090D5
:107440009B01E0909C01F0909D0167DE292D30E0CA
:10745000382BF6010901B0925700E8951124F2E0AB
:10746000CF0ED11CE11CF11CC0929A01D0929B015D
:10747000E0929C01F0929D0102C04FDE982EAB2459
:1074800022C04BDE682F80919A0190919B01A091C0
:107490009C01B0919D01B695A79597958795E7D4E6
:1074A00080919A0190919B01A0919C01B0919D01C6
:1074B0000296A11DB11D80939A0190939B01A09308
:1074C0009C01B0939D018B819C8101979C838B8350
:1074D000ABCF063409F0CFCEF20180925700E89589
:1074E00007B600FCFDCFC7CE9B3109F03FCF04C0EB
:1074F00080919E01811155C08FB7F8949091A3019E
:107500008FBF80919E01811106C0992309F449C063
:107510005D981093A001F92EFF20B1F00091A20117
:10752000E02FF0E0EC55FE4F80810EDE0F5F0F770D
:107530000093A2019FB7F8948091A301815080939A
:10754000A3019FBFFA94E8CF1093E9009091E8005F
:107550008091E8008E778093E80095FD1DC08091B2
:10756000E80080FD10C08EB38111F9CF80919E019B
:107570008823B9F0F4E0F093E9008091E8008B777C
:107580008093E8000EC08091E8008E778093E80039
:1075900003C08EB3882351F38091E80080FFF9CFB8
:1075A000E5CF22D4A89B15C0A89A8091A00188237A
:1075B00031F081508093A001811101C05D9A8091CA
:1075C0009F01882331F0815080939F01811101C078
:1075D0005C9A809100018111F7CD8FE99FE00197BE
:1075E000F1F700C000008091E00081608093E0002E
:1075F0009CE088E10FB6F894A895809360000FBED8
:1076000090936000FFCF42E061EC82E0E2D142E380
:1076100061E883E0DED142E360E884E0DAC1CF9341
:1076200080912602982F9F77913209F0C1C09091E6
:107630002702913299F4813A09F0BAC08091E800AA
:10764000877F8093E80067E070E081E091E065D19A
:107650008091E8008B778093E800AAC0903209F00F
:1076600092C0813209F0A4C08091E800877F8093A6
:10767000E800E1E0F1E087E0882309F19EB3992377
:1076800011F1953001F19091E80093FD1CC09091AB
:10769000E80092FFF1CF9091F200992329F09091A8
:1076A000F10091938150B9F79091E8009B77909306
:1076B000E800E2CF8EB3882331F0853021F080914D
:1076C000E80080FFF7CF8091E8008E778093E80094
:1076D0002091010130910201409103015091040178
:1076E000211581EE38074105510521F481E0809391
:1076F0009E0102C010929E011092A3011092A2015D
:107700001092A10180910601813021F0823021F494
:10771000C0E203C0C0E301C0C0E080910501823037
:1077200009F4C86080910701873031F0883031F06A
:10773000863029F4C26003C0C46001C0C6605B9A91
:107740001092C9001092C8001092CA00DA01C90153
:10775000B695A79597958795BC01CD0160587B4755
:10776000814E9F4F5AD3215031093093CD00209341
:10777000CC00C093CA0082E08093C80088E980935F
:10778000C9005B9815C0923299F4813289F48091D6
:10779000E800877F8093E80030D180919E018111BD
:1077A00006C08091280280FF02C05F9801C05F9AE6
:1077B000CF9108951F920F920FB60F9211248F93BD
:1077C0009F93EF93FF939091CE0080919E01811142
:1077D00017C08EB38430A1F48091A30187FD10C03F
:1077E0008091A101E82FF0E0EC55FE4F90838F5F70
:1077F0008F778093A1018091A3018F5F8093A30174
:10780000FF91EF919F918F910F900FBE0F901F905E
:107810001895292F30E02230310559F023303105F9
:1078200069F021303105F9F482E190E020E831E09F
:107830001EC08EE390E022E431E019C0882349F0B5
:10784000813061F0823079F480E290E028E031E02C
:107850000EC084E090E02EE331E009C082E190E0C8
:107860002AE231E004C080E090E020E030E0FA015C
:1078700031832083089507B600FCFDCFF999FECF30
:1078800023E0FB0120935700E89507B600FCFDCFED
:1078900081E180935700E895089507B600FCFDCF7D
:1078A000F999FECF25E0FB0120935700E89507B634
:1078B00000FCFDCF81E180935700E895089507B65D
:1078C00000FCFDCFF999FECF21E0FB010A012093D6
:1078D0005700E8951124089521E2FC0120935700F8
:1078E0008491089529E0FC01209357008491089524
:1078F000E1E0F0E089E0809357008491089507B6B5
:1079000000FCFDCFF999FECF809599E0E1E0F0E031
:10791000082E90935700E895089520912C023091FD
:107920002D022617370748F06115710539F42091AB
:10793000E8002E772093E80001C0B90140E061150E
:10794000710579F12EB32223F1F12530F1F1209167
:10795000E80023FD3CC02091E80022FD2EC02091CC
:10796000E80020FFECCF2091F20030E0FC01CF01D5
:107970006115710559F02830310540F481918093EB
:10798000F100615071092F5F3F4FF1CF41E0283086
:10799000310509F040E02091E8002E772093E800BF
:1079A000CECF4111CFCF09C08EB3882361F085308F
:1079B00061F08091E80083FD0AC08091E80082FFB9
:1079C000F3CF80E0089582E0089583E0089581E098
:1079D00008958F708093E900EBEEF0E08081816084
:1079E0008083EDEEF0E010826093EC0040838091A4
:1079F000EE00881F8827881F08958091260287FF40
:107A00000FC08091E80082FD04C08EB38111F9CFD0
:107A100010C08091E8008B770AC08EB3882349F0AC
:107A20008091E80080FFF9CF8091E8008E77809305
:107A3000E80008953CD03ED08091D8008F778093A5
:107A4000D8008091D80080688093D8008091D800B9
:107A50008F7D8093D80084E089BD86E089BD09B41C
:107A600000FEFDCF1EBA1092240242E060E080E0EA
:107A7000B0DF8091E1008E7F8093E1008091E20091
:107A800081608093E2008091E20088608093E20050
:107A90008091E0008E7F8093E0000895E3E6F0E0BF
:107AA00080818E7F808381E080932502C3CF1092F6
:107AB000E20008951092E10008951F920F920FB610
:107AC0000F9211242F933F934F935F936F937F9364
:107AD0008F939F93AF93BF93EF93FF938091E100B8
:107AE00080FF16C08091E20080FF12C08091E2000A
:107AF0008E7F8093E2008091E20080618093E200BB
:107B00008091D80080628093D80019BC1EBA6BD1D6
:107B10008091E10084FF2EC08091E20084FF2AC0A2
:107B200084E089BD86E089BD09B400FEFDCF809167
:107B3000D8008F7D8093D8008091E1008F7E809364
:107B4000E1008091E2008F7E8093E2008091E2006C
:107B500081608093E20080912402882311F084E008
:107B600007C08091E30087FD02C081E001C083E08F
:107B70008EBB39D18091E10083FF21C08091E2006A
:107B800083FF1DC08091E100877F8093E10082E048
:107B90008EBB109224028091E1008E7F8093E100E1
:107BA0008091E2008E7F8093E2008091E20080610C
:107BB0008093E20042E060E080E00BDF14D1FF91AF
:107BC000EF91BF91AF919F918F917F916F915F9155
:107BD0004F913F912F910F900FBE0F901F901895CE
:107BE0001F93CF93DF9300D0CDB7DEB7E6E2F2E08C
:107BF00088E08E0F9091F10091938E13FBCF0FDDF3
:107C00008091E80083FFDBC08091260290912702DB
:107C1000953009F466C030F4913059F168F0933032
:107C200041F1CDC0983009F49DC0993009F4ACC041
:107C3000963009F0C4C076C0803881F0823809F0EF
:107C4000BEC080912A028F708093E9008091EB0082
:107C500085FB882780F91092E90001C080E09091AF
:107C6000E800977F9093E8008093F1001092F10074
:107C700084C0282F2D7F09F0A2C0823009F09FC058
:107C800080912802811127C080912A028F7009F407
:107C900096C08093E9002091EB0020FF1CC0933038
:107CA00021F48091EB00806214C09091EB00906110
:107CB0009093EB0021E030E0A90102C0440F551F72
:107CC0008A95E2F74093EA001092EA008091EB0077
:107CD00088608093EB001092E9008091E800877F34
:107CE0004FC081116CC0109128021F778091E30072
:107CF0008078812B8093E3008091E800877F8093D8
:107D0000E8007BDE8091E80080FFFCCF8091E300FB
:107D100080688093E300111102C082E001C083E01B
:107D20008EBB4DC08058823008F049C0AE014F5F15
:107D30005F4F60912A02809128029091290269DDAB
:107D4000BC01009709F43BC09091E800977F9093A5
:107D5000E80089819A81E1DD8091E8008B7780934A
:107D6000E8002DC0803859F58091E800877F809326
:107D7000E800809124028093F1008091E8008E77E2
:107D80008093E8003ADE1BC0811119C0909128024F
:107D90009230A8F48091E800877F8093E800909368
:107DA00024022BDE80912402811106C08091E30021
:107DB00087FD02C081E001C084E08EBB24DC80919D
:107DC000E80083FF0AC08091E800877F8093E80085
:107DD0008091EB0080628093EB000F900F90DF9119
:107DE000CF911F9108950895CF938EB3882399F072
:107DF000C091E900CF709091EC00892F817090FDC7
:107E000080E8C82B1092E9008091E80083FDE8DE4D
:107E1000CF70C093E900CF910895A1E21A2EAA1B5A
:107E2000BB1BFD010DC0AA1FBB1FEE1FFF1FA2172A
:107E3000B307E407F50720F0A21BB30BE40BF50B27
:107E4000661F771F881F991F1A9469F760957095B0
:107E5000809590959B01AC01BD01CF010895F999E2
:107E6000FECF92BD81BDF89A992780B50895262F3F
:107E7000F999FECF1FBA92BD81BD20BD0FB6F8940F
:0E7E8000FA9AF99A0FBE01960895F894FFCF72
:107E8E000100000000000008200348006F006F0092
:107E9E0064004C006F0061006400650072003200E7
:107EAE00200055006E006F00000012034E006900A6
:107EBE0063006F0048006F006F0064000000040351
:107ECE00090409023E00020100803209040000018B
:107EDE0002020100052400100104240202052406FA
:107EEE000001070582030800FF09040100020A00D1
:107EFE000000070504024000050705830240000547
:107F0E001201100102000008412343000402010285
:0A7F1E000001484C322E302E3400D2
:107FA0006ACC7BCC8CCC98CC9DCCA2CCA8CC0895B0
:087FB000089508950895089555
:107FE000DFCFDFCFDFCFDFCFDFCFDFCFDFCFDFCF21
:087FF000DFCFDFCFDFCFDFCFD1
:087FF8000070000000DFFBDC5B
:040000030000700089
:00000001FF
