:1030000039C0000082C0000080C000007EC0000007
:103010007CC000007AC0000078C0000076C00000CC
:1030200074C0000072C0000070C0000058C50000ED
:103030006CC000006AC0000068C0000066C00000EC
:1030400064C0000062C0000060C000005EC00000FC
:103050005CC000005AC0000058C00000B2C30000AD
:1030600054C0000052C0000050C000004EC000001C
:103070004CC0000011241FBECFEFD2E0DEBFCDBF99
:10308000309180021092800224B714BE88E10FB6FE
:10309000F89480936000109260000FBEE0E0F0E0D2
:1030A000859194910196E1F021FF12C03737C1F06C
:1030B00087E7809380028FEF9EE924E28150904061
:1030C0002040E1F700C00000109280021FD008C02D
:1030D00020FF02C01BD004C023FF02C03737D1F746
:1030E00011E0A0E0B1E0E2EDFEE302C005900D9238
:1030F000A23AB107D9F712E0A2EAB1E001C01D92ED
:10310000A633B107E1F738D0E2C67ACF0C940000BD
:10311000089584E08093E9000DC08091E8008B77EA
:103120008093E80003C08EB3882359F08091E800B3
:1031300082FFF9CF8091E80085FFEFCF8091F10009
:10314000089580E0089593E09093E9009091E8005D
:1031500095FF03C08093F10008959091E8009E7759
:103160009093E80003C09EB3992329F09091E80062
:1031700090FFF9CFEFCF0895CF93DF93CDB7DEB7B0
:1031800028970FB6F894DEBF0FBECDBF90E080E861
:103190000FB6F89480936100909361000FBE81E0B8
:1031A00085BF82E085BF8CD484E085BD8AB1886B01
:1031B0008AB98BB1846B8BB9789464E0862E13E066
:1031C0009924939409E00EC28092E9008091E8006E
:1031D00082FF99C19EDF982F8091A201811113C0B7
:1031E0008091C80085FFFCCF9093CE008091F200C3
:1031F000811105C08091E8008B778093E8005C988E
:103200001093A50184C1953419F41092000107C0F0
:10321000892F8857823010F0943521F47ADF8DE0C1
:1032200092DF75C19035D9F39C3409F4F8CF943707
:1032300021F484E488DF80E0F3CF913611F489E54E
:10324000EFCF9134D1F465DFF82E63DF90E0880F83
:10325000991FFF0CFB821A822A813B81822B932BC0
:10326000AA2797FDA095BA2F809327029093280252
:10327000A0932902B0932A02D2CF903711F483E5AC
:10328000CFCF933571F446E9E42E41E0F42EF701F7
:1032900081917F0158DFFDE9EF16F1E0FF06B9F7F4
:1032A00036C1963521F481E34EDF80E3B9CF933701
:1032B00031F482E848DF84E946DF8EE1B1CF95360C
:1032C000B1F4E0E0F0E010935700E89507B600FC99
:1032D000FDCF25E020935700E89507B600FCFDCF11
:1032E000E058FF4FE11530E3F30769F798CF9C36BC
:1032F00049F40FDF8095E1E0F0E0082E00935700DD
:10330000E8958DCF923719F4E1E0F0E004C09634EF
:1033100031F4E0E0F0E000935700849181CF9E34D7
:1033200019F4E3E0F0E0F7CF913519F4E2E0F0E0D2
:10333000F2CF923631F489E506DF80E004DF80E8E1
:103340006FCF923419F0973609F0D9C09E83E1DE31
:10335000782E612CDEDE9301282B38872F83D9DE6F
:10336000898385549E81823010F08FE359CF973640
:1033700009F049C031E130935700E895A12C3DC0D8
:10338000C0902702D0902802E0902902F0902A02F3
:1033900029812634B9F4EA2DF0E0EC29FD29849145
:1033A000D2DEAA2069F032E0C30ED11CE11CF11C70
:1033B000C0922702D0922802E0922902F0922A02BB
:1033C000A92415C0D701C601B695A79597958795ED
:1033D00068D5B9DE82E0C80ED11CE11CF11CC09298
:1033E0002702D0922802E0922902F0922A022F812D
:1033F00038852150310938872F832F813885232B39
:1034000009F0BECF84C0209027023090280240905F
:10341000290250902A023981363409F05CC0F1014A
:1034200010935700E89507B600FCFDCF54C02981E2
:10343000263441F5AA2011F1C0902702D09028022D
:10344000E0902902F0902A0264DE8D831C822C8198
:103450003D812B29F601090190925700E89511242E
:10346000F2E0CF0ED11CE11CF11CC0922702D092D9
:103470002802E0922902F0922A0202C04ADEB82E07
:10348000A92422C046DE682F80912702909128024D
:10349000A0912902B0912A02B695A7959795879594
:1034A00008D58091270290912802A0912902B0911D
:1034B0002A020296A11DB11D809327029093280233
:1034C000A0932902B0932A022F8138852150310917
:1034D00038872F8302C0B12CA12C2F813885232B54
:1034E00009F0A5CF3981363409F099CE25E0F101F4
:1034F00020935700E89507B600FCFDCF90CE9B3196
:1035000009F033CF04C08091A201811153C08FB75D
:10351000F894F090A3018FBF8091A20181111DC08A
:10352000FF2009F447C05D981093A40116C0E090F5
:10353000A601EE2DF0E0E955FE4F808104DE8E2DD0
:103540008F5F8F778093A6019FB7F8948091A30136
:1035500081508093A3019FBFFA94F110E8CF10939C
:10356000E9009091E8008091E8008E778093E80070
:1035700095FD11C08091E80080FD04C08EB38111DB
:10358000F9CF0DC08091E8008E778093E80003C0EA
:103590008EB3882321F08091E80080FFF9CF8091DD
:1035A000A201882339F08092E9008091E8008B77AE
:1035B0008093E800A89B15C0A89A8091A401882355
:1035C00031F081508093A401811101C05D9A8091F6
:1035D000A501882331F081508093A501811101C09C
:1035E0005C9A22D4809100018111EECD8091E0009F
:1035F00081608093E0002CE088E190E00FB6F894C1
:10360000A895809360000FBE20936000FFCF42E03A
:1036100061EC82E0EED142E361E883E0EAD142E38B
:1036200060E884E0E6C1CF9380912E02982F9F77C7
:10363000913209F0C4C090912F02913239F0923248
:1036400009F4AAC0903209F0BAC013C0813A09F057
:10365000B6C08091E800877F8093E80067E070E063
:1036600081E091E064D18091E8008B778093E8005D
:10367000A6C0813209F0A3C08091E800877F8093C3
:10368000E80027E081E091E03EB3332339F13530A3
:1036900029F13091E80033FD21C03091E80032FF7C
:1036A000F3CFFC0106C08091F1008193CF0121503E
:1036B00029F0CF013091F2003111F5CF3091E800BF
:1036C0003B773093E8002111DFCF8091E80080FD47
:1036D00005C08EB3882311F08530B9F78091E800DA
:1036E0008E778093E8002091010130910201409192
:1036F000030150910401211581EE38074105510560
:1037000021F481E08093A20102C01092A2011092E4
:10371000A3011092A60110922B02E0910601E15044
:10372000E23028F4F0E0E65FFE4FC08101C0C0E067
:1037300080910501823009F4C860809107018730CB
:1037400031F0883031F0863029F4C26003C0C460A3
:1037500001C0C6605B9A1092C9001092C800109216
:10376000CA00CA01B9019695879577956795605803
:103770007B47814E9F4F73D3215031093093CD0049
:103780002093CC00C093CA0082E08093C80088E9EF
:103790008093C9005B9813C0813289F48091E8005E
:1037A000877F8093E80039D18091A201811106C002
:1037B0008091300280FF02C05F9801C05F9ACF9174
:1037C00008951F920F920FB60F9211248F939F931B
:1037D000EF93FF939091CE008091A201811117C0C9
:1037E0008EB38430A1F48091A301813880F480915C
:1037F0002B02E82FF0E0E955FE4F90838F5F8F7723
:1038000080932B028091A3018F5F8093A301FF918E
:10381000EF919F918F910F900FBE0F901F90189571
:10382000292F30E033272230310539F0233031059C
:1038300049F02130310589F00BC02EE330E086E4F9
:1038400091E01EC0882371F0813089F08230A1F0B0
:1038500020E030E080E090E013C022E130E084E836
:1038600091E00EC024E030E082E491E009C022E162
:1038700030E08EE291E004C020E230E08CE091E0A4
:10388000FA0191838083C901089507B600FCFDCF3A
:10389000F999FECF23E0FB0120935700E89507B686
:1038A00000FCFDCF81E180935700E895089507B6AD
:1038B00000FCFDCFF999FECF25E0FB0120935700D6
:1038C000E89507B600FCFDCF81E180935700E895AD
:1038D000089507B600FCFDCFF999FECF21E0FB016A
:1038E0000A0120935700E8951124089521E2FC0174
:1038F000209357008491089529E0FC0120935700FC
:1039000084910895E1E0F0E089E08093570084918C
:10391000089507B600FCFDCFF999FECF809599E098
:10392000E1E0F0E0082E90935700E895089520918B
:103930003402309135022617370748F061157105BA
:1039400039F42091E8002E772093E80001C0B901F6
:103950009C0180E033C09EB3992309F444C09530A4
:1039600009F443C09091E80093FD41C09091E800B4
:1039700092FD33C09091E80090FF20C08091F2004A
:1039800090E0F901821B930B05C021912093F10077
:10399000615071099F01280F391F6115710519F0D8
:1039A0002830310590F381E02830310509F080E0BE
:1039B0009091E8009E779093E8009F016115710552
:1039C00051F68111C8CF09C08EB3882361F08530CC
:1039D00061F08091E80083FD0AC08091E80082FFD9
:1039E000F3CF80E0089582E0089583E0089581E0B8
:1039F00008958F708093E900EBEEF0E080818160A4
:103A00008083EDEEF0E010826093EC0040838091C3
:103A1000EE00881F8827881F089580912E0287FD59
:103A200005C08091E80080FF0DC010C08091E800C3
:103A300082FD04C08EB38111F9CF08958091E80012
:103A40008B7707C08EB38111ECCF08958091E80089
:103A50008E778093E80008953CD03ED08091D800C6
:103A60008F778093D8008091D80080688093D800A9
:103A70008091D8008F7D8093D80084E089BD86E056
:103A800089BD09B400FEFDCF1EBA10922C0242E09F
:103A900060E080E0AEDF8091E1008E7F8093E10006
:103AA0008091E20081608093E2008091E200886072
:103AB0008093E2008091E0008E7F8093E000089583
:103AC000E3E6F0E080818E7F808381E080932D02A9
:103AD000C3CF1092E20008951092E10008951F9262
:103AE0000F920FB60F9211242F933F934F935F9332
:103AF0006F937F938F939F93AF93BF93EF93FF93B6
:103B00008091E10080FF16C08091E20080FF12C02A
:103B10008091E2008E7F8093E2008091E2008061DC
:103B20008093E2008091D80080628093D80019BC15
:103B30001EBA79D18091E10084FF2EC08091E2000D
:103B400084FF2AC084E089BD86E089BD09B400FEF7
:103B5000FDCF8091D8008F7D8093D8008091E100C7
:103B60008F7E8093E1008091E2008F7E8093E2005F
:103B70008091E20081608093E20080912C02882392
:103B800011F084E007C08091E30087FF02C083E06A
:103B900001C081E08EBB47D18091E10083FF21C04D
:103BA0008091E20083FF1DC08091E100877F8093B8
:103BB000E10082E08EBB10922C028091E1008E7FAA
:103BC0008093E1008091E2008E7F8093E2008091FB
:103BD000E20080618093E20042E060E080E009DF83
:103BE00022D1FF91EF91BF91AF919F918F917F91E2
:103BF0006F915F914F913F912F910F900FBE0F905A
:103C00001F9018951F93CF93DF9300D0CDB7DEB7E9
:103C1000EEE2F2E08091F100819382E0E633F80772
:103C2000C9F701DD8091E80083FFE9C080912E0291
:103C300090912F02953009F470C038F4913079F1E9
:103C400070F0933009F0DBC02AC0983009F4AAC0A4
:103C5000993009F4B9C0963009F0D1C083C08038DA
:103C600099F0823809F0CBC08091320290913302F2
:103C70008F7099278093E9009091EB0095FB99272D
:103C800090F91092E90001C090E08091E800877FF0
:103C90008093E8009093F1001092F1008EC0882389
:103CA00019F0823009F0ABC08F71823009F0A7C0E3
:103CB0008091300281112BC08091320290913302A9
:103CC0008F709927009709F49AC08093E90020919A
:103CD000EB0020FF1CC020912F02233021F48091A3
:103CE000EB00806212C09091EB0090619093EB002A
:103CF00021E030E001C0220F8A95EAF72093EA0024
:103D00001092EA008091EB0088608093EB001092A3
:103D1000E9008091E800877F53C0811170C08091D5
:103D20003002909131028F779927182F9091E300FC
:103D30009078982B9093E3008091E800877F8093A0
:103D4000E8006BDE8091E80080FFFCCF8091E3000B
:103D500080688093E300112311F083E001C082E0CA
:103D60008EBB4DC08058823008F049C0AE014F5F15
:103D70005F4F60913202809130029091310250DDAC
:103D8000009709F43CC02091E800277F2093E800C9
:103D9000BC0189819A81CBDD8091E8008B7780938B
:103DA000E8002DC0803859F58091E800877F809326
:103DB000E80080912C028093F1008091E8008E77DA
:103DC0008093E8002ADE1BC0811119C09091300257
:103DD0009230A8F48091E800877F8093E800909368
:103DE0002C021BDE80912C02811104C08091E30023
:103DF00087FF02C084E001C081E08EBB08DC8091B7
:103E0000E80083FF0AC08091E800877F8093E80084
:103E10008091EB0080628093EB000F900F90DF9118
:103E2000CF911F9108950895CF938EB38823A9F061
:103E30008091E9008F709091EC0090FF02C090E8B3
:103E400001C090E0C92FC82B1092E9008091E800D2
:103E500083FDD8DECF70C093E900CF910895A1E231
:103E60001A2EAA1BBB1BFD010DC0AA1FBB1FEE1FF4
:103E7000FF1FA217B307E407F50720F0A21BB30B3F
:103E8000E40BF50B661F771F881F991F1A9469F7BB
:103E900060957095809590959B01AC01BD01CF0117
:103EA0000895F999FECF92BD81BDF89A992780B502
:103EB0000895262FF999FECF1FBA92BD81BD20BD6E
:103EC0000FB6F894FA9AF99A0FBE01960895F894ED
:023ED000FFCF22
:103ED200010000000000000880023020200348009A
:103EE2006F006F0064004C006F00610064006500A9
:103EF20072003200200055006E006F0000001203B5
:103F02004E00690063006F0048006F006F0064009C
:103F120000000403090409023E0002010080320984
:103F22000400000102020100052400100104240221
:103F3200020524060001070582030800FF090401A7
:103F420000020A000000070504024000050705837D
:103F52000240000512011001020000084123430043
:103F6200010201020001486F6F644C6F6164657267
:023F720032001B
:103FA00074CC85CC96CCA2CCA7CCACCCB2CC0895AA
:083FB000089508950895089595
:103FE000DFCFDFCFDFCFDFCFDFCFDFCFDFCFDFCF61
:083FF000DFCFDFCFDFCFDFCF11
:083FF8000030000000DFFBDCDB
:0400000300003000C9
:00000001FF
