:1070000055C000008DC000008BC0000089C000008A
:1070100087C0000085C0000083C0000081C0000060
:107020007FC000007DC0000099C5000079C000004D
:1070300077C0000075C0000073C0000071C0000080
:107040006FC000006DC000006BC0000069C0000090
:10705000E9C1000065C0000063C0000061C000001D
:107060005FC000005DC000005BC0000059C00000B0
:1070700057C0000055C0000053C0000051C00000C0
:107080004FC000004DC000004BC0000049C00000D0
:1070900047C0000045C0000043C0000041C00000E0
:1070A0003FC000003DC000003BC0000011241FBED7
:1070B000CFEFDAE0DEBFCDBF04B603FE1CC0809187
:1070C0007F019091800182349C4DA9F484B7877F21
:1070D00084BF0FB6F894A895809160008861809372
:1070E0006000109260000FBE1092800110927F012C
:1070F000E0E0F0E0099511E0A0E0B1E0ECE7FEE7A8
:1071000002C005900D92A236B107D9F721E0A2E6A0
:10711000B1E001C01D92AF37B207E1F73BD1ACC679
:107120006FCF8823C9F09091F3002091F20030E0F6
:10713000392B232B69F49091E8009B7F9093E80012
:107140009091E80092FD06C09EB39111F9CF04C062
:107150009091F1008150E5CF0895EAE6F1E03581A4
:107160002481938182819093640180936501C90198
:10717000909362018093630108951F93CF93DF93EF
:10718000CDB7DEB727970FB6F894DEBF0FBECDBFE1
:107190009091740180916A019923D1F0843049F46F
:1071A00080916B01811108C080916C018F3F21F4A7
:1071B0005AC0853009F4ACC08AE08093000183E0B6
:1071C000809372018091EB0080628093EB00D8C0C5
:1071D000843009F448C028F4813051F08330F1F054
:1071E000CFC0853009F494C0863009F4BDC0C8C052
:1071F00010916B01123008F0C3C0AFDF11110CC049
:10720000809164019091650123E0FC012093570077
:10721000E89507B600FCFDCF85E007C080916B01C3
:10722000982F9D7F29F499DF89E080930001A8C001
:10723000813009F0A5C0E0E0F0E084918F3F69F073
:1072400010926601F0936501E09364018AE08093F7
:10725000000185E08093720193C03196E11520E72B
:10726000F20759F78DC080916B01833069F581E099
:1072700080937301209170013091710180916C01B4
:10728000232B61F0813009F07BC090916F018091D8
:107290006E01909367018093680172C0811111C0E3
:1072A00082E49CED9093800180937F019CE088E1D3
:1072B0000FB6F894A895809360000FBE909360007D
:1072C0005FC0109201015CC081115AC080916C01B5
:1072D0008F3F09F055C0E0E0F0E083E095E0809357
:1072E0005700E89507B600FCFDCF90935700E8954E
:1072F00007B600FCFDCFE058FF4FE11520E7F2078D
:1073000071F781E180935700E8951092740138C0BD
:1073100080E28D838CED8E838BEF8F8388E589836C
:107320008EE18A8385E98B8387E88C8320916C01C9
:1073300080916B01811105C0FE01E20FF11D858175
:1073400010C08130E9F4822F90E0203618F4E1ED8E
:10735000FFEF02C0E4EAFFEFEC0FFD1FE80FF91F9B
:107360008081809369010CC080916B01833041F46E
:1073700080916C01811104C080916D018093660140
:1073800027960FB6F894DEBF0FBECDBFDF91CF9129
:107390001F91089584B7877F84BF0FB6F894A8958E
:1073A00080916000886180936000109260000FBE41
:1073B00090E080E80FB6F8948093610090936100AC
:1073C0000FBEC1E0C5BF82E085BFABD3209A289A2B
:1073D000559A5D9A3F9A4798C0936F0083E08093D7
:1073E000810028985D9A47987894809101018823BC
:1073F00011F024D5FACF809173018111FACF3ED3D9
:107400002098289855985D983F98479810926F005B
:107410001092810081E085BF15BEE0916701F09177
:10742000680109951F920F920FB60F9211248F9346
:1074300081E083B980E289B916B88F910F900FBEB1
:107440000F901F901895CF92DF92EF92FF920F93BB
:107450001F93CF93DF93809177018F77813209F06B
:10746000F6C181E083B980E289B916B880917D01C7
:1074700090917E01909371018093700180917801C9
:10748000833009F4A5C158F48130D1F0823009F07D
:10749000DEC18091E800877F8093E80009C18530D4
:1074A00009F4BCC108F4B2C1863009F0D0C18091A2
:1074B000E800877F8093E80082E080930001BEC1EE
:1074C0008091E800877F8093E80080917301882392
:1074D00019F053DE10927301809170019091710147
:1074E000009761F12091E80022FD04C02EB3211124
:1074F000F9CFADC12091F10020936A0101979093DB
:10750000710180937001EBE6F1E02091F30080912E
:10751000F20090E0922B892B81F08091F100819311
:107520008091700190917101019790937101809306
:10753000700121E0E037F20741F71FDE8091000182
:10754000853009F0ADC08091700190917101892B57
:1075500021F482E080930001A3C08AE1E2DD009182
:10756000640110916501802F8F71DBDD80916201D4
:10757000909163010196EC01C01BD10B80916B01CE
:1075800081117CC0CE0196958795A8012091660156
:10759000622F70E06A017B01A0E0B1E0C5E0D3E0BA
:1075A000009709F445C0E091F3002091F20030E02B
:1075B0003E2B232BC9F00197F091F100E091F100EF
:1075C0002F2F3E2FFA010901B0935700E89511249F
:1075D000AF5F8A019B010E5F1F4F2F4F3F4FB901D5
:1075E000A801A03471F40FC02091E8002B7F2093F4
:1075F000E8002091E80022FDDECF2EB32111F9CF63
:1076000026C1009769F6F601C0935700E89507B6C2
:1076100000FCFDCF009709F4C3CFF801D0935700C9
:10762000E89507B600FCFDCF68017901A0E0B8CF6E
:107630008091620190916301909365018093640150
:1076400081E180935700E89529C02091F300809153
:10765000F20090E0922B892BA1F021976091F1002C
:107660008091640190916501F9D3809164019091BA
:10767000650101969093650180936401209729F735
:107680000DC08091E8008B7F8093E8008091E80036
:1076900082FDE3CF8EB38111F9CFD9C080E141DD06
:1076A0008091E8008B7F91C08EB3882309F4CFC00E
:1076B0008091E80080FFF8CF80910001893091F03F
:1076C0008A3059F480916B01813039F490916401D2
:1076D000809165019093F10002C0809169018093CF
:1076E000F10070C02091640130916501C091620188
:1076F000D09163012196C21BD30B80916B01811144
:1077000033C0D695C795C90120916601A22FB0E07C
:10771000219708F14091F3002091F20030E0342BE2
:107720002032310559F0FC01259134912093F1006C
:107730003093F1000296A11DB11DEACF2091E8001F
:107740002E7F2093E8002091E80020FDECCF2EB39F
:107750002111F9CF7CC080916201909163019093D7
:107760006501809364012BC0823049F5209739F17F
:107770002091F3008091F20090E0922B809791F09D
:10778000809164019091650161D38093F1008091B3
:107790006401909165010196909365018093640165
:1077A0002197E4CF8091E8008E7F8093E80080915C
:1077B000E80080FDE5CF8EB38111F9CF48C082E0AB
:1077C000809300018091E8008E7F8093E80036C0AE
:1077D0008091E800877F8093E8008091E80080FD39
:1077E00004C08EB38111F9CF32C0809172018093B1
:1077F000F1001092F1001092F1001092F1008091CE
:1078000000018093F1001092F100DCCF8091E8003C
:10781000877F8093E8001092720110C08091E80089
:10782000877F8093E8008091E80080FD04C08EB3DC
:107830008111F9CF0CC08091000151CFDF91CF9120
:107840001F910F91FF90EF90DF90CF90FAC0DF91E2
:10785000CF911F910F91FF90EF90DF90CF900895FF
:10786000292F30E02230310559F02330310569F0FD
:1078700021303105F9F482E190E02FE431E01EC0BF
:107880008BE190E024E331E019C0882349F0813096
:1078900061F0823079F482E190E022E031E00EC0C4
:1078A00084E090E020E331E009C088E190E026E147
:1078B00031E004C080E090E020E030E0FA01318364
:1078C0002083089507B600FCFDCFF999FECF23E091
:1078D000FB0120935700E89507B600FCFDCF81E13E
:1078E00080935700E895089507B600FCFDCFF999FD
:1078F000FECF25E0FB0120935700E89507B600FC7A
:10790000FDCF81E180935700E895089507B600FC0C
:10791000FDCFF999FECF21E0FB010A01209357002A
:10792000E8951124089521E2FC01209357008491E9
:10793000089529E0FC012093570084910895E1E027
:10794000F0E089E0809357008491089507B600FC29
:10795000FDCFF999FECF809599E0E1E0F0E0082EA7
:1079600090935700E895089520917D0130917E0114
:107970002617370748F06115710539F42091E800A2
:107980002E7F2093E80001C0B901FC0120E06115C1
:10799000710571F18EB38823E9F18530E9F18091A9
:1079A000E80083FD3BC08091E80082FD2DC08091FE
:1079B000E80080FFECCF2091F3008091F20090E08E
:1079C000922B6115710551F08032910538F42191A7
:1079D0002093F100615071090196F3CF21E0809767
:1079E00009F020E08091E8008E7F8093E800CFCFFF
:1079F0002111D0CF09C08EB3882361F0853061F0AA
:107A00008091E80083FD0AC08091E80082FFF3CFF7
:107A100080E0089582E0089583E0089581E008956C
:107A2000EBEEF0E0808181608083EDEEF0E010828B
:107A30006093EC0040838091EE00881F8827881FA8
:107A400008958091770187FF0FC08091E80082FD43
:107A500004C08EB38111F9CF10C08091E8008B7FF4
:107A60000AC08EB3882349F08091E80080FFF9CFE7
:107A70008091E8008E7F8093E800089562D069D0FD
:107A8000E0EEF0E0808181608083E8EDF0E08081CD
:107A90008F77808319BCA7EDB0E08C918E7F8C939B
:107AA00080818F7E80831092760108950F931F93BB
:107AB000CF93DF9346D04DD0C8EDD0E088818F774B
:107AC000888388818068888388818F7D888319BCBA
:107AD0001EBA1092750100EE10E0F80180818B7FD4
:107AE000808388818160888342E260E080E098DF63
:107AF000E1EEF0E080818E7F8083E2EEF0E0808135
:107B000081608083808188608083F80180818E7F9E
:107B10008083888180618883DF91CF911F910F914D
:107B20000895E8EDF0E080818F7E8083E7EDF0E05E
:107B300080818160808384E082BF81E080937601D0
:107B4000B5CFE8EDF0E080818E7F80831092E20077
:107B500008951092DA001092E10008951F920F929A
:107B60000FB60F9211242F933F934F935F936F9310
:107B70007F938F939F93AF93BF93EF93FF938091E6
:107B8000DA0080FF1BC08091D80080FF17C0809171
:107B9000DA008E7F8093DA008091D90080FF0BC0DD
:107BA00080E189BD82E189BD09B400FEFDCF81E09D
:107BB0008EBB43D103C019BC1EBA3FD18091E100F6
:107BC00080FF17C08091E20080FF13C08091E20027
:107BD0008E7F8093E2008091E20080618093E200DA
:107BE0008091D80080628093D80019BC85E08EBB5C
:107BF00024D18091E10084FF2EC08091E20084FFB7
:107C00002AC080E189BD82E189BD09B400FEFDCFB3
:107C10008091D8008F7D8093D8008091E1008F7E85
:107C20008093E1008091E2008F7E8093E20080915A
:107C3000E20081608093E20080917501882311F059
:107C400084E007C08091E30087FD02C081E001C0AD
:107C500083E08EBBF2D08091E10083FF21C0809150
:107C6000E20083FF1DC08091E100877F8093E100E7
:107C700082E08EBB109275018091E1008E7F80932F
:107C8000E1008091E2008E7F8093E2008091E2002B
:107C900080618093E20042E260E080E0C1DECDD00E
:107CA000FF91EF91BF91AF919F918F917F916F91D4
:107CB0005F914F913F912F910F900FBE0F901F90AA
:107CC00018951F93CF93DF9300D0CDB7DEB7E7E7CA
:107CD000F1E08091F100819381E0EF37F807C9F777
:107CE000B2DB8091E80083FF94C08091770190918E
:107CF00078019630E1F128F4992351F09530B1F0F4
:107D000088C0983009F453C0993009F462C081C02A
:107D10008D7F803809F07DC08091E800877F809357
:107D2000E8001092F1001092F1004CC0811171C076
:107D3000109179011F778091E3008078812B8093E7
:107D4000E3008091E800877F8093E8007ADE8091ED
:107D5000E80080FFFCCF8091E30080688093E3001F
:107D6000111102C082E001C083E08EBB52C0805876
:107D7000823008F04EC0AE014F5F5F4F60917B01D3
:107D80008091790190917A016BDDBC01892B09F416
:107D900040C09091E800977F9093E80089819A8194
:107DA000E3DD8091E8008B7F8093E80032C080386B
:107DB00081F58091E800877F8093E80080917501CC
:107DC0008093F1008091E8008E7F8093E80039DE97
:107DD00020C081111EC08091790190917A0199276C
:107DE0000297BCF48091E800877F8093E80080913F
:107DF00079018093750125DE80917501811106C09E
:107E00008091E30087FD02C081E001C084E08EBB69
:107E100014D08091E80083FF0AC08091E800877F3A
:107E20008093E8008091EB0080628093EB000F90DC
:107E30000F90DF91CF911F91089508958EB38823FD
:107E400021F08091E80083FD3CCF0895F999FECFA1
:107E500092BD81BDF89A992780B50895262FF9998A
:107E6000FECF1FBA92BD81BD20BD0FB6F894FA9A1D
:0C7E7000F99A0FBE01960895F894FFCF18
:107E7C00020112034C005500460041002000440052
:107E8C0046005500000018034400650061006E00B8
:107E9C002000430061006D0065007200610000006D
:107EAC000403090409021B000101008032090400CB
:107EBC000000FE0102000921030000000C10011259
:107ECC0001100100000020EB03F42F000001020060
:027EDC000100A3
:107FA00091CCA2CCB3CCBFCCC4CCC9CCCFCC08959F
:087FB000089508950895089555
:107FE000DFCFDFCFDFCFDFCFDFCFDFCFDFCFDFCF21
:087FF000DFCFDFCFDFCFDFCFD1
:087FF8000070000010DFFBDC4B
:040000030000700089
:00000001FF
